:020000040800F2
:2000000000000420911700083D15000843150008491500084F15000855150008000000000E
:2000200000000000000000000000000001B100085B1500080000000011B3000879B300088E
:20004000E1170008E1170008E1170008E1170008E1170008E1170008E1170008E1170008A0
:20006000E1170008E1170008E1170008E1170008E1170008E1170008E1170008E117000880
:20008000E1170008E1170008E1170008E1170008E1170008E1170008E1170008E117000860
:2000A000E1170008E1170008E1170008E1170008E1170008E1170008E1170008E117000840
:2000C000E1170008E1170008E117000869150008E11700087D150008E1170008E117000800
:2000E000E1170008E1170008E117000891150008E1170008E1170008E1170008E117000852
:20010000E1170008E1170008E1170008E1170008E1170008A5150008B9150008CD1500085D
:20012000E1170008E1170008E1170008E1170008E1170008000000000000000000000000BF
:20014000000000000000000000000000E1170008E1170008E1170008E1170008E11700089F
:20016000E1170008E1170008E1170008E1170008E1170008E117000800000000000000007F
:20018000E1170008E1170008E1170008E1170008E1170008E117000800000000E11700085F
:2001A000000000000000000000000000E1170008E1170008E117000800000000000000003F
:2001C00000000000000000000000000000000000000000000000000000000000E11700081F
:2001E00010B5054C237833B9044B13B10448AFF300800123237010BD00010020000000003C
:20020000F42A020808B5034B1BB103490348AFF3008008BD0000000004010020F42A020814
:2002200001F0FF01102A2BDB10F0070F08D010F8013B013A8B422DD010F0070F42B3F6D184
:20024000F0B441EA012141EA014122F007047FF000070023F0E80256083C85EA010586EA31
:20026000010685FA47F5A3FA87F586FA47F6A5FA87F68EB9EED1F0BC01F0FF0102F007022C
:2002800032B110F8013B013A83EA010313B1F8D10020704701387047002D06BF354603388F
:2002A000073815F0010F07D1013015F4807F02BF013015F4C03F0130F0BC0138704700BF53
:2002C00053B94AB9002908BF00281CBF4FF0FF314FF0FF3000F06EB9ADF1080C6DE904CE4E
:2002E00000F006F8DDF804E0DDE9022304B070472DE9F047089D04468C46002B40F0838095
:200300008A42174647D9B2FA82F242B1C2F1200024FA00F09140974040EA010C94404FEAB4
:200320001748230CBCFBF8F61FFA87FE08FB16C143EA014306FB0EF1994209D9FB1806F1DA
:20034000FF3080F01981994240F21681023E3B445B1AA4B2B3FBF8F008FB103344EA0344E5
:2003600000FB0EFEA64509D93C1900F1FF3380F00581A64540F2028102383C4440EA064071
:20038000A4EB0E0400261DB1D4400023C5E900433146BDE8F08702B9FFDEB2FA82F2002A2B
:2003A00050D1CB1B4FEA174E1FFA87F80126B3FBFEFC210C0EFB1C3341EA034108FB0CF33B
:2003C0008B4207D979180CF1FF3002D28B4200F2E9808446C91AA3B2B1FBFEF00EFB1011F1
:2003E00043EA014408FB00F8A04507D93C1900F1FF3302D2A04500F2D9801846A4EB080456
:2004000040EA0C40BFE78B4209D9002D00F0B1800026C5E9000130463146BDE8F087B3FA38
:2004200083F6002E4AD18B4202D3824200F2B880841A61EB030101208C46002DA8D0C5E936
:20044000004CA5E7C2F1200320FA03F6974001FA02F04FEA174ED9403043030CB1FBFEF63E
:200460001FFA87F80EFB161143EA014306FB08F1994204FA02F409D9FB1806F1FF3C80F0E3
:200480008D80994240F28A80023E3B445B1A81B2B3FBFEF00EFB103341EA034100FB08F384
:2004A0008B4207D9791800F1FF3C73D28B4271D902383944CB1A40EA064678E7C6F1200C22
:2004C00003FA06F422FA0CF31C4320FA0CF701FA06F34FEA144E21FA0CF11F433B0CB1FB92
:2004E000FEF91FFA84F80EFB191143EA014109FB08FA8A4502FA06F200FA06F308D96118B8
:2005000009F1FF3048D28A4546D9A9F102092144A1EB0A01BFB2B1FBFEF00EFB101147EAA3
:20052000014700FB08F8B84507D9E71900F1FF312ED2B8452CD90238274440EA0940A7EBCE
:200540000807A0FB02894F45C64649461AD317D05DB1B3EB0E0267EB010707FA0CFCF24012
:200560004CEA0202F740C5E9002700263146BDE8F0872E4628460BE70646E9E61846FDE64C
:200580004345E5D2B8EB020E69EB04010138DFE70846D2E760468DE78146B9E7664675E781
:2005A00030464AE7ACF1020C394413E702383C4424E700BF704700BF80B582B000AF034619
:2005C000FB71FB79002B09D10A4B1B78184600F015F80021084805F0FBF907E00021064843
:2005E00005F0F0FA002000F009F800BF00BF0837BD4680BD040000205C22012080B483B0E4
:2006000000AF0346FB710D4B1B78FA799A420ED0FB79642B28BF6423FB71084AFB79137038
:20062000FB79002B064B1B68FA795A6300E000BF0C37BD465DF8047B704700BF04000020C4
:200640005C22012080B400AF00BFBD465DF8047B704780B400AF00BFBD465DF8047B70479B
:2006600080B400AFBFF34F8F00BFBFF36F8F00BF0D4B0022C3F85022BFF34F8F00BFBFF331
:200680006F8F00BF084B5B69074A43F400335361BFF34F8F00BFBFF36F8F00BF00BFBD4697
:2006A0005DF8047B704700BF00ED00E080B485B000AF1F4B0022C3F88420BFF34F8F00BFD1
:2006C0001B4BD3F880307B607B685B0BC3F30E03FB607B68DB08C3F30903BB60FB685A0192
:2006E00043F6E0731340BA68920711491343C1F86032BB685A1EBA60002BEFD1FB685A1EEA
:20070000FA60002BE5D1BFF34F8F00BF084B5B69074A43F480335361BFF34F8F00BFBFF348
:200720006F8F00BF00BF1437BD465DF8047B704700ED00E080B582B000AF7860391D4FF60E
:20074000FF730122034806F019FB7B6818460837BD4680BDD821012080B500AFFFF780FF7C
:20076000FFF7A4FF01F09AFD00F032F800F0D4FA00F0C2F800F0E2F800F00EF900F0F6F936
:2007800000F02EFA00F066FA00F096FA00F042F90BF06CF8094821F047FD094821F044FD9E
:2007A00007F078FB074A0021074807F0DDFB0346064A136007F0A2FBFEE700BF1C2B0208AA
:2007C000682B0208E03C0208E90E00082C21012080B5B4B000AF07F1A00330220021184635
:2007E00021F082F907F18C0300221A605A609A60DA601A6107F10C0380220021184621F0A8
:2008000073F902F0EDFA3A4B1B6C394A43F080531364374B1B6C03F08053BB60BB68354BFA
:200820001B68344A43F440431360324B1B6803F440437B607B680123C7F8A0304FF48033A9
:20084000C7F8A4300223C7F8B8304FF48003C7F8BC300623C7F8C030D823C7F8C43002231D
:20086000C7F8C8300223C7F8CC3007F1A003184602F0DEFE0346002B01D000F073FB02F085
:20088000BFFA0346002B01D000F06CFB0F23C7F88C300223C7F890300023C7F894304FF4C9
:2008A000A053C7F898304FF48053C7F89C3007F18C030721184603F05FF90346002B01D080
:2008C00000F050FB4FF48863FB600023BB640023BB6507F10C03184603F056FB0346002BB2
:2008E00001D000F03FFB00BFD037BD4680BD00BF003802400070004080B500AF0D4B0E4A7A
:200900001A600C4B00221A710A4B00225A71094B00225A61074B00229A61064B01221A6287
:20092000044801F02FFE0346002B01D000F01AFB00BF80BD302101200030024080B500AF3F
:20094000134B144A1A60124BFF225A60104B01229A600F4B0022DA600D4B01221A610C4BAE
:2009600000225A610A4B00229A61094B0022DA61074B00221A62064802F092FA0346002B47
:2009800001D000F0EFFA01F0FFFA00BF80BD00BFA4230120001000A080B500AF1B4B1C4AC0
:2009A0001A601A4B4FF482725A60184B00229A60164B4FF40062DA60144B00221A61134B4E
:2009C00000225A61114B4FF400729A610F4B1022DA610E4B00221A620C4B00225A620B4BE5
:2009E00000229A62094B0722DA62084B00221A63064B08225A63054803F010FE0346002B34
:200A000001D000F0AFFA00BF80BD00BFA82201200030014080B59AB000AF07F158030022B2
:200A20001A605A609A60DA6007F14C0300221A605A609A6007F1300300221A605A609A603C
:200A4000DA601A615A619A613B1D2C220021184621F04AF8434B444A1A60424B40F23742E5
:200A60005A60404B00229A603E4B6322DA603D4B00221A613B4B00225A613A4B00229A61A3
:200A8000384804F073FE0346002B01D000F06AFA4FF48053BB6507F158031946314805F082
:200AA00045FB0346002B01D000F05CFA2D4804F02DFF0346002B01D000F054FA0023FB64D1
:200AC00000233B6500237B6507F14C031946254805F0DCFF0346002B01D000F043FA602378
:200AE0003B6300237B630223BB630023FB6300233B6400237B640023BB6407F13003002240
:200B00001946184805F0FEF90346002B01D000F029FA00237B600023BB600023FB600023F5
:200B20003B6100237B614FF40053BB610023FB6100233B624FF000737B620023BB62002337
:200B4000FB623B1D1946074806F02EF80346002B01D000F007FA034800F0AAFB00BF6837A2
:200B6000BD4680BD5C2201200000014080B584B000AF3B1D00221A605A609A60164B174AD3
:200B80001A60154B40F207725A60134B00229A60114B40F2F312DA600F4B00229A610E4802
:200BA00004F0E4FD0346002B01D000F0DBF900237B600023FB603B1D1946074805F066FF7B
:200BC0000346002B01D000F0CDF9034804F026FE00BF1037BD4680BD582301200014004081
:200BE00080B584B000AF3B4600221A605A609A60DA60164B164A1A60144B00225A60134BFE
:200C000000229A60114B4FF6FF72DA600F4B00221A610E4B00229A610C4804F0A7FD0346CA
:200C2000002B01D000F09EF94FF480533B603B461946064805F07AFA0346002B01D000F0B4
:200C400091F900BF1037BD4680BD00BF0C2301200018004080B500AF154B164A1A60144BE0
:200C60004FF4E1325A60124B00229A60104B0022DA600F4B00221A610D4B0C225A610C4BA5
:200C800000229A610A4B0022DA61094B00221A62074B00225A62002300220021044807F0BA
:200CA00089F80346002B01D000F05CF900BF80BD542101200050004080B500AF144B154A65
:200CC0001A60134B4FF4E1325A60114B00229A600F4B0022DA600E4B00221A610C4B0C2283
:200CE0005A610B4B00229A61094B0022DA61084B00221A62064B00225A62054805F0F0FFC4
:200D00000346002B01D000F02DF900BF80BD00BFD82101200010014080B58AB000AF07F13C
:200D2000140300221A605A609A60DA601A616A4B1B6B694A43F004031363674B1B6B03F0CE
:200D400004033B613B69644B1B6B634A43F080031363614B1B6B03F08003FB60FB685E4B2F
:200D60001B6B5D4A43F0010313635B4B1B6B03F00103BB60BB68584B1B6B574A43F0020336
:200D80001363554B1B6B03F002037B607B68524B1B6B514A43F0080313634F4B1B6B03F07C
:200DA00008033B603B6801221C214C4801F0FEFF002208214A4801F0F9FF0122102148485E
:200DC00001F0F4FF002240F20221464801F0EEFF01224FF48061434801F0E8FF42F6030364
:200DE0007B610023BB610023FB6107F1140319463A4801F043FD1C237B610123BB610023BA
:200E0000FB6103233B6207F114031946334801F035FD49F606037B610323BB610023FB61C2
:200E200007F1140319462E4801F028FD18237B610123BB610023FB6103233B6207F1140310
:200E40001946274801F01AFD4CF299137B610323BB610023FB6107F114031946214801F06D
:200E60000DFD02237B610123BB610023FB6100233B6207F1140319461A4801F0FFFC4FF4E9
:200E8000C0637B610123BB610023FB6103233B6207F114031946134801F0F0FC43F62003CF
:200EA0007B610023BB610023FB6107F1140319460C4801F0E3FCC0237B610323BB610023E2
:200EC000FB6107F114031946044801F0D7FC00BF2837BD4680BD00BF003802400008024057
:200EE000000002400004024080B586B004AF78604FF4806302930B4B0193102300930A4BB4
:200F00004FF400720749094800F08CFD0020FFF753FB6420FFF772FB0AF0AEFC012007F0FB
:200F2000C9F8FBE70004024000000240A822012080B582B000AF78607B681B68074A934221
:200F400001D101F0C7F97B681B68054A934201D10EF028FA00BF0837BD4680BD0010004004
:200F60000014004080B400AF72B600BFFEE7000080B582B000AF114B1B6C104A43F0805315
:200F800013640E4B1B6C03F080537B607B680B4B5B6C0A4A43F480435364084B5B6C03F443
:200FA00080433B603B6800220F216FF0010001F0B1FA00BF0837BD4680BD00BF003802406B
:200FC00080B485B000AF78607B681B680A4A93420BD10A4B1B6B094A43F480531363074BB6
:200FE0001B6B03F48053FB60FB6800BF1437BD465DF8047B704700BF0030024000380240A0
:2010000080B58AB000AF786007F1140300221A605A609A60DA601A617B681B682D4A934214
:2010200054D12D4B9B6B2C4A43F0020393632A4B9B6B03F002033B613B69274B1B6B264A4E
:2010400043F002031363244B1B6B03F00203FB60FB68214B1B6B204A43F0040313631E4BC2
:201060001B6B03F00403BB60BB6804237B610223BB610023FB6103233B6209237B6207F12B
:2010800014031946154801F0F9FB4FF4C0637B610223BB610023FB6103233B6209237B62CA
:2010A00007F1140319460E4801F0E8FB40237B610223BB610023FB6103233B620A237B62CC
:2010C00007F114031946054801F0D8FB00BF2837BD4680BD001000A00038024000040240C3
:2010E0000008024080B582B000AF78607B681B680A4A93420ED10A4B9B6B094A23F0020384
:2011000093634421074801F055FD4FF4C061064801F050FD00BF0837BD4680BD001000A004
:2011200000380240000402400008024080B58AB000AF786007F1140300221A605A609A6050
:20114000DA601A617B681B681B4A93422FD11B4B5B6C1A4A43F480535364184B5B6C03F4C7
:2011600080533B613B69154B1B6B144A43F001031363124B1B6B03F00103FB60FB68E023D0
:201180007B610223BB610023FB6103233B6205237B6207F114031946094801F06FFB0022AF
:2011A0000621232001F0B6F9232001F0CFF900BF2837BD4680BD00BF003001400038024021
:2011C0000000024080B582B000AF78607B681B68094A93420CD1094B5B6C084A23F480531D
:2011E0005364E021064801F0E5FC232001F0BCF900BF0837BD4680BD003001400038024005
:201200000000024080B586B000AF78607B681B68234A93420CD1234B5B6C224A43F001033D
:201220005364204B5B6C03F001037B617B6932E07B681B681C4A934214D11A4B1B6C194A27
:2012400043F020031364174B1B6C03F020033B613B6900220621372001F05CF9372001F054
:2012600075F918E07B681B68104A934213D10D4B1B6C0C4A43F0400313640A4B1B6C03F09E
:201280004003FB60FB68002205212B2001F042F92B2001F05BF900BF1837BD4680BD00BFF1
:2012A0000000014000380240001400400018004080B588B000AF786007F10C0300221A6030
:2012C0005A609A60DA601A617B681B68114A93421CD1114B1B6B104A43F0010313630E4BE0
:2012E0001B6B03F00103BB60BB684FF48073FB6002233B6100237B610323BB610123FB6120
:2013000007F10C031946054801F0B8FA00BF2037BD4680BD00000140003802400000024024
:2013200080B58CB000AF786007F11C0300221A605A609A60DA601A617B681B684D4A9342C7
:201340005ED14D4B1B6C4C4A43F4801313644A4B1B6C03F48013BB61BB69474B1B6B464ADA
:2013600043F004031363444B1B6B03F004037B617B69414B1B6B404A43F0080313633E4B15
:201380001B6B03F008033B613B694FF48073FB6102233B6200237B620323BB620723FB626B
:2013A00007F11C031946354801F068FA4FF48053FB6102233B6200237B620323BB62082345
:2013C000FB6207F11C0319462C4801F057FA0423FB6102233B6200237B620323BB620823D1
:2013E000FB6207F11C031946254801F047FA00220521352001F08EF8352001F0A7F835E06D
:201400007B681B681F4A934230D11B4B5B6C1A4A43F010035364184B5B6C03F01003FB600E
:20142000FB68154B1B6B144A43F001031363124B1B6B03F00103BB60BB684FF4C063FB617E
:2014400002233B6200237B620323BB620723FB6207F11C0319460C4801F010FA00220521F3
:20146000252001F057F8252001F070F800BF3037BD4680BD0050004000380240000802408F
:20148000000C0240001001400000024080B58CB000AF78600023FB620023BB6200227968B0
:2014A000362001F037F8362001F050F81F4B1B6C1E4A43F0100313641C4B1B6C03F010031D
:2014C000FB60FB6807F1100207F114031146184602F028FD02F0FEFC03465B00FB62FB6A17
:2014E000134AA2FB03239B0C013BBB62114B124A1A60104B40F2E732DA600E4ABB6A53608A
:201500000C4B00221A610B4B00229A60094804F02DF90346002B04D1064804F07FF90346AE
:2015200000E0012318463037BD4680BD0038024083DE1B43F02301200010004080B400AF02
:20154000FEE780B400AFFEE780B400AFFEE780B400AFFEE780B400AFFEE780B400AF00BFE4
:20156000BD465DF8047B704780B500AF024803F0D9FD00BF80BD00BFA822012080B500AF5C
:20158000024805F08FFC00BF80BD00BFD821012080B500AF024804F095FB00BF80BD00BF3F
:2015A0000C23012080B500AF024805F07BFC00BF80BD00BF5421012080B500AF024804F0CE
:2015C00081FB00BF80BD00BFF023012080B500AF024804F077FB00BF80BD00BF58230120B5
:2015E00080B400AF01231846BD465DF8047B704780B582B000AF7860396020F00DFA034611
:2016000016221A604FF0FF3318460837BD4680BD80B582B000AF78604FF0FF317868FFF797
:20162000E7FFFEE780B586B000AFF860B9607A6000237B610AE0AFF300800146BB685A1C8F
:20164000BA60CAB21A707B6901337B617A697B689A42F0DB7B6818461837BD4680BD80B504
:2016600086B000AFF860B9607A6000237B6109E0BB685A1CBA601B781846FFF75BF87B6981
:2016800001337B617A697B689A42F1DB7B6818461837BD4680BD80B483B000AF78604FF0CF
:2016A000FF3318460C37BD465DF8047B704780B483B000AF786039603B684FF400525A6050
:2016C000002318460C37BD465DF8047B704780B483B000AF7860012318460C37BD465DF8AD
:2016E000047B704780B485B000AFF860B9607A60002318461437BD465DF8047B70470000F7
:2017000080B586B000AF7860144A154BD31A7B617B693B61134B1B68002B02D1114B124A39
:201720001A60104B1A687B6813443A699A4207D220F072F903460C221A604FF0FF3309E0FA
:20174000084B1B68FB60074B1A687B681344054A1360FB6818461837BD4680BD0000042014
:20176000000400001C0100209824012080B400AF064BD3F88830054A43F47003C2F8883029
:2017800000BFBD465DF8047B704700BF00ED00E0DFF834D00D480E490E4A002302E0D45860
:2017A000C4500433C4188C42F9D30B4A0B4C002301E013600432A242FBD3FFF7D7FF20F081
:2017C00043F9FEF7C9FF7047000004200000002000010020E06F02080001002094240120A1
:2017E000FEE7000080B500AF064B1B68002B07D0044B1B68044A11880022184601F0D6FA50
:2018000000BF80BD240100202801002080B500AF064B1B68002B07D0044B1B68044A1188CB
:201820000122184601F0C2FA00BF80BD240100202801002080B500AF064B1B68002B07D036
:20184000044B1B68044A11880022184601F0AEFA00BF80BD2C0100203001002080B500AF38
:20186000064B1B68002B07D0044B1B68044A11880122184601F09AFA00BF80BD2C0100208A
:201880003001002080B500AF064B1B68002B07D0044B1B68044A11880122184601F086FA92
:2018A00000BF80BD340100203801002080B582B000AF78603960084B1B68002B07D0064BCE
:2018C00018683B689AB26423796802F07AFF00BF0837BD4680BD00BF3C24012080B584B0DF
:2018E00000AF786039603B68FB6017E07B681B789BB27B817B8943F480739BB27B810C4B46
:201900001B68002B07D00A4B186807F10A016423012202F056FF7B6801337B60FB685A1EAC
:20192000FA60002BE2D100BF00BF1037BD4680BD3C24012080B584B000AF786039603B68BD
:20194000FB602DE07B681B789BB27B817B6801331B789BB23B817B8943F480739BB27B8136
:201960003B8943F480739BB23B81124B1B68002B07D0104B186807F108016423012202F016
:2019800020FF0C4B1B68002B07D00A4B186807F10A016423012202F014FF7B6802337B60D2
:2019A000FB685A1EFA60002BCCD100BF00BF1037BD4680BD3C24012080B582B000AF7860B6
:2019C0003960084B1B68002B07D0064B18683B689AB26423796803F062F800BF0837BD4620
:2019E00080BD00BF3C24012080B582B000AF78600B4B1B68002B0ED0094B1B687A68DA61A6
:201A0000074B1B68184602F0B4FE054B1B68184602F004FE00E000BF0837BD4680BD00BFED
:201A20003C24012080B58AB000AFF860B9603B601346FB80FB68002B08D0BB68002B05D09E
:201A40003B68002B02D07B6B002B01D1002349E1A64AFB681360A64ABB681360A54AFB88F8
:201A60001380A54A3B681360A44A3B8E1380A44A7B6B1360A34A3B8F138000F045F9112094
:201A800000F053F9782000F045FCB12000F04DF9052000F05CF93A2000F059F93A2000F0EA
:201AA00056F9B22000F041F9052000F050F93A2000F04DF93A2000F04AF9B32000F035F96F
:201AC000052000F044F93A2000F041F93A2000F03EF9052000F03BF93A2000F038F93A2091
:201AE00000F035F9B42000F020F9032000F02FF9C02000F01AF9622000F029F9022000F027
:201B000026F9042000F023F9C12000F00EF9C02000F01DF9C22000F008F90D2000F017F9B8
:201B2000002000F014F9C32000F0FFF88D2000F00EF96A2000F00BF9C42000F0F6F88D202D
:201B400000F005F9EE2000F002F9C52000F0EDF8122000F0FCF8362000F0E7F8682000F031
:201B6000F6F8E02000F0E1F8032000F0F0F81B2000F0EDF8122000F0EAF8112000F0E7F89F
:201B80003F2000F0E4F83A2000F0E1F8322000F0DEF8342000F0DBF82F2000F0D8F82B206E
:201BA00000F0D5F8302000F0D2F83A2000F0CFF8002000F0CCF8012000F0C9F8022000F095
:201BC000C6F8052000F0C3F8E12000F0AEF8032000F0BDF81B2000F0BAF8122000F0B7F86A
:201BE000112000F0B4F8322000F0B1F82F2000F0AEF82A2000F0ABF82F2000F0A8F82E203E
:201C000000F0A5F82C2000F0A2F8352000F09FF83F2000F09CF8002000F099F8002000F0F1
:201C200096F8012000F093F8052000F090F8FC2000F07BF88C2000F08AF83A2000F075F889
:201C4000052000F084F82A2000F06FF8002000F07EF8002000F07BF8002000F078F8A02009
:201C600000F075F82B2000F060F8002000F06FF8002000F06CF8002000F069F8802000F088
:201C800066F8002000F0EFF8292000F04EF82C2000F04BF81820FFF7A7FE07F114031422D9
:201CA000002118461FF020FF07F1140301221946DA2000F05EF807F11403023301221946E0
:201CC000DB2000F056F807F11403043301221946DC2000F04EF81020FFF786FE002000F017
:201CE000C2F8012318462837BD4680BD3C24012024010020280100202C010020300100205C
:201D0000340100203801002080B500AF0A2000F001FBFFF767FD0A2000F0FCFAFFF776FD48
:201D20000A2000F0F7FA00BF80BD80B582B000AF0346FB71FFF77EFDFB1D01211846FFF7D2
:201D4000B5FDFFF78BFD00BF0837BD4680BD80B582B000AF0346FB71FFF76CFDFB1D0121B1
:201D60001846FFF7BBFDFFF779FD00BF0837BD4680BD80B582B000AF03463960FB711346F0
:201D8000BB71FFF757FDFB1D01211846FFF78EFDBB7919463868FFF70FFEFFF75FFD00BF6D
:201DA0000837BD4680BD90B583B000AF0446084611461A462346FB800346BB800B467B807A
:201DC00013463B80FB889F2B28BF9F23FB80BB887F2B28BF7F23BB807B889F2B28BF9F2357
:201DE0007B803B887F2B28BF7F233B802A20FFF79CFFFB881B0A9BB2DBB21846FFF7A7FFE0
:201E0000FB88DBB21846FFF7A2FF7B881B0A9BB2DBB21846FFF79BFF7B88DBB21846FFF7E9
:201E200096FF2B20FFF781FFBB881B0A9BB2DBB21846FFF78CFFBB88DBB21846FFF787FF81
:201E40003B881B0A9BB2DBB21846FFF780FF3B88DBB21846FFF77BFF2C20FFF766FF00BF69
:201E60000C37BD4690BD80B584B000AF0346FB807F239F2200210020FFF795FFFFF7DAFCF9
:201E8000FFF700FD0023FB6007E0BB1D01211846FFF750FDFB680133FB60FB68B3F5A04F63
:201EA000F3D3FFF7DBFC00BF1037BD4680BD90B585B000AFF860084611461A4603467B817E
:201EC0000B463B811346FB807A89FB8813449BB2013B9CB23A893B8C13449BB2013B9BB2B6
:201EE000398978892246FFF75EFFFFF7A3FC796AF868FFF71FFDFFF7B1FC00F007F80DF0EB
:201F00004BFA00BF1437BD4690BD000080B400AF034B00221A7000BFBD465DF8047B7047F8
:201F20002001002080B400AF034B1B781846BD465DF8047B704700BF2001002080B500AFCC
:201F4000FFF7F0FF0346184680BD80B586B002AFF860084611461A4603467B810B463B81ED
:201F60001346FB80FB883A8B02FB03F3F8883A89798901933B8B00930346F868FFF797FFEB
:201F800000BF1037BD4680BD80B582B000AF354801F002F800F06EF800F046F90346012B83
:201FA00057D03B1D184600F005F90346002B52D13B1D03222C4918461FF07AFD0346002B75
:201FC0001CD12A4B02221A70284B4FF480725A60264B4FF480529A60244B4FF48032DA6071
:201FE000224B4FF080721A611E4800F0D5FF00F041F800F0A5F80346002B2ED03B1D0322F9
:202000001B4918461FF054FD0346002B1DD1174B01221A70154B4FF480725A60134B4FF43D
:2020200080529A60114B4FF48032DA600F4B4FF480021A610B4800F0AFFF00F01BF800F0CB
:202040007FF80346002B07D108E0084B00221A7002E000BF00E000BFFEE700BF0837BD46B0
:2020600080BD00BFA4230120902B02083C010020942B020880B584B000AF2E4B2E4A1A600E
:202080002C4800F089FF0346002B01D001234CE02848FEF7B5FF294B1B78032B03D1254B2D
:2020A00001225A6002E0234B01225A60214B04229A60204B1022DA601E4B4FF480725A615A
:2020C0001C4B00229A611B4B0022DA61194B00221A621A4B1B78002B0FD14FF08073FB6027
:2020E000FB6893FAA3F3BB60BB68B3FA83F3DBB2013B1A460F4B1A610EE0104B1B697B6053
:202100007B6893FAA3F33B603B68B3FA83F3DBB2013B1A46074B1A61064800F0C1FE03461C
:20212000002B01D0012300E0002318461037BD4680BD00BFA4230120001000A03C010020E3
:2021400080B590B000AF194B1B78002B01D1012328E04FF480733B623B23BB604FF48063C9
:202160007B624FF400537B610023BB624FF00073FB620823FB6100237B630023BB630023D5
:20218000FB6300237B6000233B603A4607F108031946074801F01FF80346002B01D0012383
:2021A00000E0002318464037BD4680BD3C010020A423012080B590B000AF78604FF4807390
:2021C0003B629F23BB6000237B620023BB624FF08073FB620023FB6103233B6300237B6372
:2021E0000023BB630023FB6307F1080341F2883219460C4800F0F4FE0346002B01D001232F
:202200000BE041F288327968064800F047FF0346002B01D0012300E0002318464037BD463D
:2022200080BD00BFA423012080B58EB000AF4FF48073BB6166233B600023FB6100233B62E3
:2022400000237B6200237B610023FB6200233B6300237B633B4641F2883219460E4800F02A
:20226000BFFE0346002B01D0012311E099233B603B4641F288321946074800F0B1FE0346EC
:20228000002B01D0012303E0962000F043F8002318463837BD4680BDA423012080B500AF5E
:2022A0000B4B1B680A4A43F400731360084B1B68074A43F480731360032000F020F90020C4
:2022C000FFF7E4F8FEF754FE0023184680BD00BF003C024080B400AF064B1B781A46064B72
:2022E0001B681344044A136000BFBD465DF8047B704700BF100000204024012080B400AF9F
:20230000034B1B681846BD465DF8047B704700BF4024012080B584B000AF7860FFF7EEFFE9
:20232000B8607B68FB60FB68B3F1FF3F05D00A4B1B781A46FB681344FB6000BFFFF7DEFF3E
:202340000246BB68D31AFA689A42F7D800BF00BF1037BD4680BD00BF1000002080B485B0BB
:2023600000AF78607B6803F00703FB600B4BDB68BB60BA684FF6FF031340BB60FB681A0291
:20238000BB681A43064B1343BB60044ABB68D36000BF1437BD465DF8047B704700ED00E0F2
:2023A0000000FA0580B400AF044BDB681B0A03F007031846BD465DF8047B704700ED00E0CE
:2023C00080B483B000AF0346FB7197F90730002B0BDBFB7903F01F02074997F907305B0957
:2023E000012000FA02F241F8232000BF0C37BD465DF8047B704700BF00E100E080B483B0DB
:2024000000AF0346FB7197F90730002B12DBFB7903F01F020A4997F907305B09012000FA58
:2024200002F2203341F82320BFF34F8F00BFBFF36F8F00BF00BF0C37BD465DF8047B70478B
:2024400000E100E080B483B000AF03463960FB7197F90730002B0ADB3B68DAB20C4997F96C
:2024600007301201D2B20B4483F800230AE03B68DAB20849FB7903F00F03043B1201D2B2E8
:202480000B441A7600BF0C37BD465DF8047B704700E100E000ED00E080B489B000AFF860CB
:2024A000B9607A60FB6803F00703FB61FB69C3F10703042B28BF0423BB61FB690433062B26
:2024C00002D9FB69033B00E000237B614FF0FF32BB6902FA03F3DA43BB681A407B699A40C2
:2024E0004FF0FF317B6901FA03F3D9437B680B40134318462437BD465DF8047B704780B57C
:2025000082B000AF78607868FFF728FF00BF0837BD4680BD80B586B000AF0346B9607A6071
:20252000FB7300237B61FFF73DFF78617A68B9687869FFF7B1FF024697F90F3011461846CD
:20254000FFF780FF00BF1837BD4680BD80B582B000AF0346FB7197F907301846FFF730FFA3
:2025600000BF0837BD4680BD80B582B000AF0346FB7197F907301846FFF740FF00BF0837FA
:20258000BD4680BD80B582B000AF78607B68002B01D1012354E07B685B7FDBB2002B05D18A
:2025A0007B6800221A777868FEF70AFD7B6802225A777B681B79002B0CD17B681B68224A80
:2025C0005A617B681B689A687B681B6822F018029A600CE07B6899687B68DB681A46786816
:2025E00000F034F80346002B01D0012328E07B685B79002B05D17B681B684FF0FF321A6145
:2026000004E07B681B687A6812691A617B681B689B6823F060017B685A697B681B680A4362
:202620009A607B681B689B6823F080017B689A697B681B680A439A607B6801225A77002316
:2026400018460837BD4680BDB71DC10480B487B000AFF860B9607A600023FB751F233B612E
:2026600000BF3B695A1E3A61002B09D03B6903F01F03BA6822FA03F303F00103002BF0D011
:202680007B68182B46D801A252F823F01B270008152700081527000815270008152700089C
:2026A000152700081527000815270008092700081527000815270008152700081527000806
:2026C000152700081527000815270008FD26000815270008152700081527000815270008F3
:2026E000152700081527000815270008F12600083B69062B13D90123FB7510E03B69072BD4
:202700000FD90123FB750CE03B690F2B0BD90123FB7508E00123FB7506E000BF04E000BF37
:2027200002E000BF00E000BFFB7D002B0DD1FB681B68BA685A61FB681B689B6823F0180100
:20274000FB681B687A680A439A60FB7D18461C37BD465DF8047B704780B584B000AF7860C3
:202760007B689B6DFB60FFF7C9FDB8607B6893F83530DBB2022B08D07B6880225A657B68B3
:20278000002283F83420012352E07B681B681A687B681B6822F016021A607B681B685A69D7
:2027A0007B681B6822F080025A617B681B6C002B03D17B689B6C002B07D07B681B681A6827
:2027C0007B681B6822F008021A607B681B681A687B681B6822F001021A6013E0FFF78EFDAC
:2027E0000246BB68D31A052B0CD97B6820225A657B68032283F835207B68002283F83420DC
:20280000032315E07B681B681B6803F00103002BE4D17B68DB6D3F229A40FB689A607B6837
:20282000012283F835207B68002283F83420002318461037BD4680BD80B483B000AF7860DB
:202840007B6893F83530DBB2022B04D07B6880225A6501230CE07B68052283F835207B6806
:202860001B681A687B681B6822F001021A60002318460C37BD465DF8047B704780B489B09F
:2028800000AF786039600023FB6100237B6100233B610023BB610023FB6169E10122FB694C
:2028A00002FA03F37B613B681B687A6913403B613A697B699A4240F058813B685B6803F08D
:2028C0000303012B05D03B685B6803F00303022B30D17B689B68BB61FB695B00032202FA82
:2028E00003F3DB43BA691340BB613B68DA68FB695B0002FA03F3BA691343BB617B68BA6901
:202900009A607B685B68BB610122FB6902FA03F3DB43BA691340BB613B685B681B0903F055
:202920000102FB6902FA03F3BA691343BB617B68BA695A603B685B6803F00303032B17D075
:202940007B68DB68BB61FB695B00032202FA03F3DB43BA691340BB613B689A68FB695B004B
:2029600002FA03F3BA691343BB617B68BA69DA603B685B6803F00303022B23D1FB69DA08CA
:202980007B68083253F82230BB61FB6903F007039B000F2202FA03F3DB43BA691340BB6192
:2029A0003B681A69FB6903F007039B0002FA03F3BA691343BB61FB69DA087B680832B969E9
:2029C00043F822107B681B68BB61FB695B00032202FA03F3DB43BA691340BB613B685B681C
:2029E00003F00302FB695B0002FA03F3BA691343BB617B68BA691A603B685B6803F4403349
:202A0000002B00F0B280604B5B6C5F4A43F4804353645D4B5B6C03F48043FB60FB685B4A11
:202A2000FB699B08023352F82330BB61FB6903F003039B000F2202FA03F3DB43BA691340F2
:202A4000BB617B68524A93422BD07B68514A934225D07B68504A93421FD07B684F4A934231
:202A600019D07B684E4A934213D07B684D4A93420DD07B684C4A934207D07B684B4A93429C
:202A800001D107230EE008230CE006230AE0052308E0042306E0032304E0022302E00123D0
:202AA00000E00023FA6902F0030292009340BA691343BB613549FB699B080233BA6941F8A9
:202AC00023203B4B9B68BB613B69DB43BA691340BB613B685B6803F48013002B03D0BA69A9
:202AE0003B691343BB61324ABB699360304BDB68BB613B69DB43BA691340BB613B685B6899
:202B000003F40013002B03D0BA693B691343BB61274ABB69D360264B5B68BB613B69DB439A
:202B2000BA691340BB613B685B6803F40033002B03D0BA693B691343BB611D4ABB695360FE
:202B40001B4B1B68BB613B69DB43BA691340BB613B685B6803F48033002B03D0BA693B6947
:202B60001343BB61124ABB691360FB690133FB61FB690F2B7FF692AE00BF00BF2437BD46CD
:202B80005DF8047B704700BF0038024000380140000002400004024000080240000C0240D8
:202BA000001002400014024000180240001C0240003C014080B487B000AF7860396000238A
:202BC0003B610023FB600023BB6000237B61CDE001227B6902FA03F33B613A683B691340C3
:202BE000FB60FA683B699A4240F0BD80654A7B699B08023352F82330BB607B6903F003032B
:202C00009B000F2202FA03F3BA681340BB607B685D4A93422BD07B685C4A934225D07B68D6
:202C20005B4A93421FD07B685A4A934219D07B68594A934213D07B68584A93420DD07B688E
:202C4000574A934207D07B68564A934201D107230EE008230CE006230AE0052308E0042384
:202C600006E0032304E0022302E0012300E000237A6902F0030292009340BA689A4232D1F6
:202C8000494B1A68FB68DB43474913400B60464B5A68FB68DB43444913404B60424BDA6821
:202CA000FB68DB4340491340CB603F4B9A68FB68DB433D4913408B607B6903F003039B0043
:202CC0000F2202FA03F3BB602E4A7B699B08023352F82310BB68DA432A487B699B080A4082
:202CE000023340F823207B681A687B695B00032101FA03F3DB431A407B681A607B69DA08D0
:202D00007B68083253F822107B6903F007039B000F2202FA03F3DB437A69D20819407B6863
:202D2000083243F822107B68DA687B695B00032101FA03F3DB431A407B68DA607B685A6839
:202D400001217B6901FA03F3DB431A407B685A607B689A687B695B00032101FA03F3DB4310
:202D60001A407B689A607B6901337B617B690F2B7FF62EAF00BF00BF1C37BD465DF8047B10
:202D8000704700BF00380140000002400004024000080240000C024000100240001402407C
:202DA00000180240001C0240003C014080B483B000AF78600B467B8013467B707B78002B42
:202DC00003D07A887B689A6103E07B881A047B689A6100BF0C37BD465DF8047B70470000CE
:202DE00080B400AF054B1B68044A43F48073136000BFBD465DF8047B704700BF0070004076
:202E000080B582B000AF00237B60234B1B6C224A43F080531364204B1B6C03F080533B606D
:202E20003B681E4B1B681D4A43F480331360FFF765FA786009E0FFF761FA02467B68D31AC0
:202E4000B3F57A7F01D9032322E0144B5B6803F48033B3F5803FEED1104B1B680F4A43F46F
:202E600000331360FFF74AFA786009E0FFF746FA02467B68D31AB3F57A7F01D9032307E0DB
:202E8000064B5B6803F40033B3F5003FEED1002318460837BD4680BD003802400070004024
:202EA00080B586B002AF7860FFF728FAF8607B68002B01D1012367E07B6893F84130DBB2F7
:202EC000002B0BD17B68002283F840207868FEF797F841F28831786800F0DFF97B681B68AD
:202EE0001B6823F4F8517B689B68013B1A027B681B680A431A607B689B6C0093FB68002282
:202F00002021786800F0D7F90346FB72FB7A002B35D17B681B681A681D4B13407A68526835
:202F200011067A68D26811437A68D26911437A68126A11437A6812680B4313607B681B6864
:202F40005A68144B13407A68126911047A68526911437A68926911437A6812680B4353600C
:202F60007B681B681A687B681B6842F001021A607B6800225A647B68012283F841207B68CC
:202F8000002283F84020FB7A18461037BD4680BD2FFFFF00FEF8E0FF80B582B000AF7860EA
:202FA0007B68002B01D1012316E07B681B681A687B681B6822F001021A607868FEF792F8DB
:202FC0007B6800225A647B68002283F841207B68002283F84020002318460837BD4680BD6D
:202FE00080B588B002AFF860B9607A60FFF786F93861FB6893F84030DBB2012B01D102234C
:2030000048E0FB68012283F84020FB6893F84130DBB2012B37D1FB6800225A64FB6802223D
:2030200083F841207B6800933B6900222021F86800F041F90346FB75FB7D002B25D1002239
:20304000B968F86800F06EF9BB685B6A002B15D17B6800933B6901220221F86800F02BF9CB
:203060000346FB75FB7D002B0FD1FB681B680222DA60FB68012283F8412006E0FB68012202
:2030800083F8412001E00223FB75FB68002283F84020FB7D18461837BD4680BD80B58AB0AA
:2030A00002AFF860B9607A600023FB77FFF726F9B861FB681B689B697B61FB681B68203352
:2030C0003B61FB6893F84030DBB2012B01D102237DE0FB68012283F84020FB6893F8413029
:2030E000DBB2012B6CD1FB6800225A64BB68002B5DD0FB68222283F84120FB681B681B692F
:203100005A1CFB689A63FB681B681B695A1CFB685A63FB68BA681A63FB681B685B6923F01A
:203120004062FB681B6842F080625A61FB681B687A699A611CE07B680093BB690122062194
:20314000F86800F0B8F80346FB77FB7F002B14D1FB681B6B3A691278D2B21A70FB681B6B1D
:203160005A1CFB681A63FB689B6B5A1EFB689A63FB689B6B002BDED100E000BFFB7F002B31
:2031800010D17B680093BB6901220221F86800F092F80346FB77FB7F002B03D1FB681B687A
:2031A0000222DA60FB68012283F841200AE0FB685B6C43F00802FB685A640123FB7701E066
:2031C0000223FB77FB68002283F84020FB7F18462037BD4680BD80B588B002AFF860B960FA
:2031E0007A60FFF78BF83861FB6893F84030DBB2012B01D102234CE0FB68012283F8402048
:20320000FB6893F84130DBB2012B3BD1FB6800225A64FB68822283F84120FB689B6C009367
:203220003B6900222021F86800F045F80346FB75FB7D002B28D1FB681B681B6823F0080120
:203240007B685A68FB681B680A431A607B685B68082B10D1FB681B687A6812681A63FB6840
:203260001B681022DA60FB681B681A68FB681B6842F480121A604FF04062B968F86800F07D
:2032800051F801E00223FB75FB68002283F84020FB7D18461837BD4680BD80B483B000AF94
:2032A000786039607B683A689A6400BF0C37BD465DF8047B704780B584B000AFF860B96001
:2032C0003B601346FB711AE0BB69B3F1FF3F16D0FFF714F802463B68D31ABA699A4202D3FA
:2032E000BB69002B0BD1FB68042283F84120FB685B6C43F00102FB685A6401230EE0FB6848
:203300001B689A68BB681340002B14BF01230023DBB21A46FB799A42D6D1002318461037C1
:20332000BD4680BD80B485B000AFF860B9607A60BB685B6A002B09D07B68B3F1406F05D0F3
:20334000BB689A6AFB681B68013A1A61BB689B69002B00F0B980BB681B6A002B5FD0FB68CA
:203360001B68BA689268DA61BB68DB69002B31D0BB68DA6ABB681B6B1A43BB685B6B1A432D
:20338000BB685B6A1A43BB685B699B041A43BB681B691A43BB681B6A1A43BB68DB681A4339
:2033A000BB68DB691A43BB689B691A43BB681B6842EA0301FB681B687A680A435A617B683C
:2033C000B3F1406F00F02E81FB681B68BA6852689A6127E1BB68DA6ABB681B6B1A43BB68A6
:2033E0005B6B1A43BB685B6A1A43BB685B699B041A43BB681B691A43BB681B6A1A43BB6856
:20340000DB691A43BB689B691A43BB681B6842EA0301FB681B687A680A435A6102E1BB68DB
:20342000DB69002B2ED0BB68DA6ABB681B6B1A43BB685B6B1A43BB685B6A1A43BB685B6940
:203440009B041A43BB681B6A1A43BB68DB681A43BB68DB691A43BB689B691A43BB681B68BA
:2034600042EA0301FB681B687A680A435A617B68B3F1406F00F0D680FB681B68BA6852680E
:203480009A61CFE0BB68DA6ABB681B6B1A43BB685B6B1A43BB685B6A1A43BB685B699B0404
:2034A0001A43BB681B6A1A43BB68DB691A43BB689B691A43BB681B6842EA0301FB681B68A6
:2034C0007A680A435A61ADE0BB681B6A002B58D0FB681B68BA689268DA61BB68DB69002BAB
:2034E0002DD0BB68DA6ABB681B6B1A43BB685B6B1A43BB685B6A1A43BB685B699B041A43F4
:20350000BB681B691A43BB681B6A1A43BB68DB681A43BB68DB691A43BB689B6942EA0301C4
:20352000FB681B687A680A435A617B68B3F1406F78D0FB681B68BA6852689A6172E0BB680B
:20354000DA6ABB681B6B1A43BB685B6B1A43BB685B6A1A43BB685B699B041A43BB681B690C
:203560001A43BB681B6A1A43BB68DB691A43BB689B6942EA0301FB681B687A680A435A61FE
:2035800050E0BB68DB69002B2AD0BB68DA6ABB681B6B1A43BB685B6B1A43BB685B6A1A4377
:2035A000BB685B699B041A43BB681B6A1A43BB68DB681A43BB68DB691A43BB689B6942EA49
:2035C0000301FB681B687A680A435A617B68B3F1406F27D0FB681B68BA6852689A6121E02C
:2035E000BB685B6A002B1DD0BB68DA6ABB681B6B1A43BB685B6B1A43BB685B6A1A43BB68B0
:203600005B699B041A43BB681B6A1A43BB68DB691A43BB689B6942EA0301FB681B687A6802
:203620000A435A6100BF1437BD465DF8047B704780B586B000AF78600023FB757B68002B57
:2036400001D1012391E27B681B6803F00103002B00F08780964B9B6803F00C03042B0CD091
:20366000934B9B6803F00C03082B12D1904B5B6803F48003B3F5800F0BD18D4B1B6803F4D4
:203680000033002B6CD07B685B68002B68D101236BE27B685B68B3F5803F06D1844B1B68DF
:2036A000834A43F4803313602EE07B685B68002B0CD17F4B1B687E4A23F4803313607C4B0B
:2036C0001B687B4A23F4802313601DE07B685B68B3F5A02F0CD1764B1B68754A43F48023A1
:2036E0001360734B1B68724A43F4803313600BE06F4B1B686E4A23F4803313606C4B1B68A6
:203700006B4A23F4802313607B685B68002B13D0FEF7F4FD386108E0FEF7F0FD02463B69DE
:20372000D31A642B01D903231FE2614B1B6803F40033002BF0D014E0FEF7E0FD386108E081
:20374000FEF7DCFD02463B69D31A642B01D903230BE2574B1B6803F40033002BF0D100E02B
:2037600000BF7B681B6803F00203002B69D0504B9B6803F00C03002B0BD04D4B9B6803F094
:203780000C03082B1CD14A4B5B6803F48003002B16D1474B1B6803F00203002B05D07B6826
:2037A000DB68012B01D00123DFE1414B1B6823F0F8027B681B69DB003D4913430B6040E020
:2037C0007B68DB68002B23D0394B1B68384A43F001031360FEF792FD386108E0FEF78EFDED
:2037E00002463B69D31A022B01D90323BDE1304B1B6803F00203002BF0D02D4B1B6823F036
:20380000F8027B681B69DB00294913430B6018E0274B1B68264A23F001031360FEF76EFDF2
:20382000386108E0FEF76AFD02463B69D31A022B01D9032399E11E4B1B6803F00203002B1C
:20384000F0D17B681B6803F00803002B38D07B685B69002B19D0164B5B6F154A43F0010394
:203860005367FEF74BFD386108E0FEF747FD02463B69D31A022B01D9032376E10C4B5B6F19
:2038800003F00203002BF0D01AE0094B5B6F084A23F001035367FEF731FD38610AE0FEF76F
:2038A0002DFD02463B69D31A022B03D903235CE100380240914B5B6F03F00203002BEED197
:2038C0007B681B6803F00403002B00F0A4808B4B1B6C03F08053002B0DD1884B1B6C874AF2
:2038E00043F080531364854B1B6C03F08053BB60BB680123FB75824B1B6803F48073002BF7
:2039000018D17F4B1B687E4A43F480731360FEF7F5FC386108E0FEF7F1FC02463B69D31AEA
:20392000642B01D9032320E1754B1B6803F48073002BF0D07B689B68012B06D16F4B1B6FB2
:203940006E4A43F0010313672DE07B689B68002B0CD16A4B1B6F694A23F001031367674BCE
:203960001B6F664A23F0040313671CE07B689B68052B0CD1614B1B6F604A43F004031367F6
:203980005E4B1B6F5D4A43F0010313670BE05B4B1B6F5A4A23F001031367584B1B6F574A7E
:2039A00023F0040313677B689B68002B15D0FEF7A5FC38610AE0FEF7A1FC02463B69D31AF9
:2039C00041F28832934201D90323CEE04B4B1B6F03F00203002BEED014E0FEF78FFC386169
:2039E0000AE0FEF78BFC02463B69D31A41F28832934201D90323B8E0404B1B6F03F0020321
:203A0000002BEED1FB7D012B05D13C4B1B6C3B4A23F0805313647B689B69002B00F0A4802C
:203A2000364B9B6803F00C03082B6BD07B689B69022B49D1314B1B68304A23F08073136072
:203A4000FEF75CFC386108E0FEF758FC02463B69D31A022B01D9032387E0284B1B6803F0F9
:203A60000073002BF0D17B68DA697B681B6A1A437B685B6A9B011A437B689B6A5B08013BD4
:203A80001B041A437B68DB6A1B0613431B4A43F000535360194B1B68184A43F0807313608B
:203AA000FEF72CFC386108E0FEF728FC02463B69D31A022B01D9032357E0104B1B6803F041
:203AC0000073002BF0D04FE00C4B1B680B4A23F080731360FEF712FC386108E0FEF70EFC2E
:203AE00002463B69D31A022B01D903233DE0034B1B6803F00073002BF0D135E000380240F1
:203B0000007000401B4B5B68FB607B689B69012B28D0FB6803F480027B68DB699A4221D195
:203B2000FB6803F03F027B681B6A9A421AD1FA6847F6C07313407A68526A9201934211D1B2
:203B4000FB6803F440327B689B6A5B08013B1B049A4207D1FB6803F070627B68DB6A1B06CE
:203B60009A4201D0012300E0002318461837BD4680BD00BF0038024080B584B000AF78605B
:203B800039600023FB607B68002B01D10123D0E06A4B1B6803F00F033A689A4210D9674B04
:203BA0001B6823F00F0265493B6813430B60634B1B6803F00F033A689A4201D00123B8E00B
:203BC0007B681B6803F00203002B20D07B681B6803F00403002B05D0594B9B68584A43F48C
:203BE000E05393607B681B6803F00803002B05D0534B9B68524A43F460439360504B9B6893
:203C000023F0F0027B689B684D4913438B607B681B6803F00103002B40D07B685B68012B78
:203C200007D1474B1B6803F40033002B15D101237FE07B685B68022B07D1414B1B6803F02C
:203C40000073002B09D1012373E03D4B1B6803F00203002B01D101236BE0394B9B6823F06C
:203C600003027B685B68364913438B60FEF746FBF8600AE0FEF742FB0246FB68D31A41F264
:203C80008832934201D9032353E02D4B9B6803F00C027B685B689B009A42EBD1274B1B6818
:203CA00003F00F033A689A4210D2244B1B6823F00F0222493B6813430B60204B1B6803F0D9
:203CC0000F033A689A4201D0012332E07B681B6803F00403002B08D0194B9B6823F4E0523A
:203CE0007B68DB68164913438B607B681B6803F00803002B09D0124B9B6823F460427B689A
:203D00001B69DB000E4913438B6000F021F802460B4B9B681B0903F00F030A49CB5C22FA43
:203D200003F3094A1360094B1B681846FDF7AEFB002318461037BD4680BD00BF003C0240B0
:203D400000380240043D0208080000200C000020B0B584B000AF002179600021F96000216D
:203D600039600021B9605249896801F00C0108290DD0082900F29480002902D0042903D0A6
:203D80008EE04C4BBB608EE04B4BBB608BE04849496801F03F0179604549496801F4800178
:203DA000002924D042494968890908464FF0000140F2FF144FF0000500EA040201EA05031E
:203DC0003D4901FB03F0002101FB02F144183A49A2FB0101631819467B681A464FF0000381
:203DE000FCF76EFA02460B461346FB604AE0304B5B689B091A464FF0000340F2FF104FF0ED
:203E0000000102EA000403EA0105204629464FF000024FF000034B0143EAD0634201104621
:203E20001946001B61EB05014FF000024FF000038B0143EA90638201121A63EB01034FF047
:203E400000004FF00001D90041EA5271D00002460B46121945EB03034FF000004FF0000112
:203E6000990241EA9251900202460B46104619467B681A464FF00003FCF722FA02460B468C
:203E80001346FB600A4B5B681B0C03F0030301335B003B60FA683B68B2FBF3F3BB6002E077
:203EA000044BBB6000BFBB6818461037BD46B0BD003802400024F400001BB70080B400AF5A
:203EC000034B1B681846BD465DF8047B704700BF0800002080B500AFFFF7F0FF0246054BDD
:203EE0009B689B0A03F007030349CB5C22FA03F3184680BD00380240143D020880B500AF44
:203F0000FFF7DCFF0246054B9B685B0B03F007030349CB5C22FA03F3184680BD0038024038
:203F2000143D020880B483B000AF786039607B680F221A60124B9B6803F003027B685A601C
:203F40000F4B9B6803F0F0027B689A600C4B9B6803F4E0527B68DA60094B9B68DB0803F471
:203F6000E0527B681A61074B1B6803F00F023B681A6000BF0C37BD465DF8047B704700BF6C
:203F800000380240003C024080B588B000AF786000237B6100233B610023FB610023BB61B9
:203FA0007B681B6803F00103002B12D0654B9B68644A23F400039360624B9A687B68DB6A52
:203FC000604913438B607B68DB6A002B01D10123FB617B681B6803F40023002B17D0594B1C
:203FE000D3F88C3023F440127B685B6B55491343C1F88C307B685B6BB3F5801F01D10123D9
:20400000FB617B685B6B002B01D10123BB617B681B6803F48013002B17D04A4BD3F88C3040
:2040200023F440027B689B6B46491343C1F88C307B689B6BB3F5800F01D10123FB617B688F
:204040009B6B002B01D10123BB617B681B6803F02003002B00F08B803A4B1B6C394A43F0B9
:2040600080531364374B1B6C03F08053FB60FB68354B1B68344A43F480731360FEF73EF91F
:20408000786108E0FEF73AF902467B69D31A642B01D90323BCE22C4B1B6803F48073002BE2
:2040A000F0D0284B1B6F03F440733B613B69002B35D07B689B6A03F440733A699A422ED01A
:2040C000204B1B6F23F440733B611E4B1B6F1D4A43F4803313671B4B1B6F1A4A23F48033A9
:2040E0001367184A3B691367164B1B6F03F00103012B14D1FEF702F978610AE0FEF7FEF835
:2041000002467B69D31A41F28832934201D903237EE20C4B1B6F03F00203002BEED07B68BF
:204120009B6A03F44073B3F5407F11D1054B9B6823F4F8127B68996A044B0B4001491343F3
:204140008B600BE00038024000700040FFFCFF0FA44B9B68A34A23F4F8139360A14B1A6FED
:204160007B689B6AC3F30B039E4913430B677B681B6803F01003002B10D09A4BD3F88C3001
:20418000984A23F08073C2F88C30964BD3F88C207B681B6B93491343C1F88C307B681B68F3
:2041A00003F48043002B0AD08E4BD3F8903023F440327B68DB6D8B491343C1F890307B68A2
:2041C0001B6803F40043002B0AD0864BD3F8903023F440227B681B6E82491343C1F8903042
:2041E0007B681B6803F48033002B0AD07D4BD3F8903023F440127B685B6E7A491343C1F870
:2042000090307B681B6803F04003002B0AD0754BD3F8903023F003027B68DB6B71491343A1
:20422000C1F890307B681B6803F08003002B0AD06C4BD3F8903023F00C027B681B6C6949A5
:204240001343C1F890307B681B6803F48073002B0AD0644BD3F8903023F030027B685B6C11
:2042600060491343C1F890307B681B6803F40073002B0AD05B4BD3F8903023F0C0027B6808
:204280009B6C58491343C1F890307B681B6803F48063002B0AD0534BD3F8903023F4407270
:2042A0007B68DB6C4F491343C1F890307B681B6803F40063002B0AD04A4BD3F8903023F471
:2042C00040627B681B6D47491343C1F890307B681B6803F48053002B0AD0424BD3F8903025
:2042E00023F440527B685B6D3E491343C1F890307B681B6803F40053002B0AD0394BD3F810
:20430000903023F440427B689B6D36491343C1F890307B681B6803F40013002B11D0314B13
:20432000D3F8903023F000627B685B6F2D491343C1F890307B685B6FB3F1006F01D10123D5
:20434000BB617B681B6803F48023002B0AD0254BD3F8903023F040727B68DB6E2149134390
:20436000C1F890307B681B6803F40003002B0AD01C4BD3F8903023F080527B689B6F194939
:204380001343C1F890307B681B6803F08063002B0AD0144BD3F8903023F000527B68DB6F91
:2043A00010491343C1F89030FB69012B06D07B681B6803F00073002B00F09D80094B1B6894
:2043C000084A23F080631360FDF798FF78610BE0FDF794FF02467B69D31A642B04D90323A1
:2043E00016E100BF003802408B4B1B6803F00063002BEDD17B681B6803F00103002B17D086
:204400007B68DB6A002B13D1834BD3F884301B0E03F00F033B617B685B689A013B691B0648
:204420001A437B689B681B077B491343C1F884307B681B6803F40023002B04D07B685B6B68
:20444000B3F5801F0AD07B681B6803F48013002B24D07B689B6BB3F5800F1FD16E4BD3F898
:2044600084301B0F03F007033B617B685B689A017B68DB681B061A433B691B076649134315
:20448000C1F88430644BD3F88C3023F01F027B68DB69013B60491343C1F88C307B681B6808
:2044A00003F00073002B0DD07B685B689A017B68DB681B061A437B689B681B0756491343AC
:2044C000C1F88430544B1B68534A43F080631360FDF714FF786108E0FDF710FF02467B6930
:2044E000D31A642B01D9032392E04B4B1B6803F00063002BF0D0BB69012B40F08880464B5B
:204500001B68454A23F080531360FDF7F7FE786108E0FDF7F3FE02467B69D31A642B01D91F
:20452000032375E03C4B1B6803F00053B3F1005FEFD07B681B6803F40023002B03D07B688D
:204540005B6B002B09D07B681B6803F48013002B24D07B689B6B002B20D12F4BD3F8883080
:204560001B0C03F003033B617B681B699A013B691B041A437B685B691B0627491343C1F816
:204580008830254BD3F88C3023F4F8527B681B6A013B1B0220491343C1F88C307B681B68B0
:2045A00003F40013002B18D07B685B6FB3F1006F13D1194BD3F888301B0E03F00F033B6189
:2045C0007B681B699A017B689B691B041A433B691B0611491343C1F888300F4B1B680E4A5B
:2045E00043F080531360FDF789FE786108E0FDF785FE02467B69D31A642B01D9032307E000
:20460000054B1B6803F00053B3F1005FEFD1002318462037BD4680BD0038024080B584B0C3
:2046200000AF78607B68002B01D101239DE07B685B6A002B08D17B685B68B3F5827F09D09E
:204640007B680022DA6105E07B6800221A617B6800225A617B6800229A627B6893F85D30F9
:20466000DBB2002B06D17B68002283F85C207868FCF75CFD7B68022283F85D207B681B681E
:204680001A687B681B6822F040021A607B68DB68B3F5E06F02D90023FB6002E04FF48053F6
:2046A000FB607B68DB68B3F5706F07D07B68DB68B3F5E06F02D07B6800229A627B685B6885
:2046C00003F482727B689B6803F404431A437B681B6903F002031A437B685B6903F0010314
:2046E0001A437B689B6903F400731A437B68DB6903F038031A437B681B6A03F0800342EAF3
:2047000003017B689B6A03F400527B681B680A431A607B689B691B0C03F004027B685B6A88
:2047200003F010031A437B685B6B03F008031A437B68DB6803F4706342EA0301FB6803F498
:2047400080527B681B680A435A607B681B68DA697B681B6822F40062DA617B6800221A66D3
:204760007B68012283F85D20002318461037BD4680BD80B582B000AF78607B68002B01D165
:2047800001231AE07B68022283F85D207B681B681A687B681B6822F040021A607868FCF70D
:2047A00011FD7B6800221A667B68002283F85D207B68002283F85C20002318460837BD46AA
:2047C00080BD80B588B000AFF860B9603B601346FB800023FB77FB6893F85C30012B01D193
:2047E000022358E1FB68012283F85C20FDF786FDB861FB88FB82FB6893F85D30DBB2012B1A
:2048000002D00223FB773DE1BB68002B02D0FB88002B02D10123FB7734E1FB68032283F8C2
:204820005D20FB6800221A66FB68BA689A63FB68FA889A87FB68FA88DA87FB6800221A6425
:20484000FB680022A3F84420FB680022A3F84620FB6800221A65FB680022DA64FB689B6821
:20486000B3F5004F0FD1FB681B681A68FB681B6822F040021A60FB681B681A68FB681B68F7
:2048800042F480421A60FB681B681B6803F04003402B07D0FB681B681A68FB681B6842F045
:2048A00040021A60FB68DB68B3F5E06F4BD9FB685B68002B02D0FB8A012B3ED1FB689B6B2F
:2048C0001A88FB681B68DA60FB689B6B9A1CFB689A63FB68DB8F9BB2013B9AB2FB68DA8731
:2048E0002BE0FB681B689B6803F00203022B12D1FB689B6B1A88FB681B68DA60FB689B6B28
:204900009A1CFB689A63FB68DB8F9BB2013B9AB2FB68DA8711E0FDF7F1FC0246BB69D31AF0
:204920003A689A4203D83B68B3F1FF3F02D13B68002B02D10323FB77A4E0FB68DB8F9BB2EF
:20494000002BCED17CE0FB685B68002B02D0FB8A012B70D1FB68DB8F9BB2012B12D9FB6888
:204960009B6B1A88FB681B68DA60FB689B6B9A1CFB689A63FB68DB8F9BB2023B9AB2FB68EA
:20498000DA8758E0FB689A6BFB681B680C3312781A70FB689B6B5A1CFB689A63FB68DB8FD1
:2049A0009BB2013B9AB2FB68DA8744E0FB681B689B6803F00203022B2BD1FB68DB8F9BB216
:2049C000012B12D9FB689B6B1A88FB681B68DA60FB689B6B9A1CFB689A63FB68DB8F9BB2FC
:2049E000023B9AB2FB68DA8725E0FB689A6BFB681B680C3312781A70FB689B6B5A1CFB6882
:204A00009A63FB68DB8F9BB2013B9AB2FB68DA8711E0FDF773FC0246BB69D31A3A689A4208
:204A200003D83B68B3F1FF3F02D13B68002B02D10323FB7726E0FB68DB8F9BB2002BB5D139
:204A4000BA693968F86800F027FE0346002B02D0FB6820221A66FB689B68002B0AD1002323
:204A60003B61FB681B68DB683B61FB681B689B683B613B69FB681B6E002B02D00123FB772D
:204A800000E000BFFB68012283F85D20FB68002283F85C20FB7F18462037BD4680BD80B5D9
:204AA00088B002AFF860B9603B601346FB800023FB75FB685B68B3F5827F12D1FB689B6882
:204AC000002B0ED1FB68042283F85D20FA883B6800931346BA68B968F86800F010F9034655
:204AE00009E1FB6893F85C30012B01D1022302E1FB68012283F85C20FDF700FC3861FB68E3
:204B000093F85D30DBB2012B02D00223FB75E9E0BB68002B02D0FB88002B02D10123FB755F
:204B2000E0E0FB68042283F85D20FB6800221A66FB68BA681A64FB68FA88A3F84420FB68E5
:204B4000FA88A3F84620FB6800229A63FB6800229A87FB680022DA87FB680022DA64FB689E
:204B600000221A65FB68DB68B3F5E06F08D9FB681B685A68FB681B6822F480525A6007E0FF
:204B8000FB681B685A68FB681B6842F480525A60FB689B68B3F5004F0FD1FB681B681A6820
:204BA000FB681B6822F040021A60FB681B681A68FB681B6822F480421A60FB681B681B6838
:204BC00003F04003402B07D0FB681B681A68FB681B6842F040021A60FB68DB68B3F5E06F84
:204BE00067D830E0FB681B689B6803F00103012B17D1FB681B6803F10C02FB681B6C127816
:204C0000D2B21A70FB681B6C5A1CFB681A64FB68B3F846309BB2013B9AB2FB68A3F8462088
:204C200011E0FDF76BFB02463B69D31A3A689A4203D83B68B3F1FF3F02D13B68002B02D1FE
:204C40000323FB754EE0FB68B3F846309BB2002BC8D134E0FB681B689B6803F00103012BDB
:204C600015D1FB681B68DA68FB681B6C92B21A80FB681B6C9A1CFB681A64FB68B3F8463059
:204C80009BB2013B9AB2FB68A3F8462011E0FDF735FB02463B69D31A3A689A4203D83B68F1
:204CA000B3F1FF3F02D13B68002B02D10323FB7518E0FB68B3F846309BB2002BCAD13A69D6
:204CC0003968F86800F06CFC0346002B02D0FB6820221A66FB681B6E002B02D00123FB7593
:204CE00000E000BFFB68012283F85D20FB68002283F85C20FB7D18461837BD4680BD80B581
:204D00008AB000AFF860B9607A607B8001237B62002387F82330FB6893F85C30012B01D1F6
:204D20000223FBE1FB68012283F85C20FDF7E6FAF861FB6893F85D30FB76FB685B687B61DA
:204D40007B887B827B883B82FB7E012B0ED07B69B3F5827F06D1FB689B68002B02D1FB7ECF
:204D6000042B03D0022387F82330CDE1BB68002B05D07B68002B02D07B88002B03D1012363
:204D800087F82330C0E1FB6893F85D30DBB2042B03D0FB68052283F85D20FB6800221A660F
:204DA000FB687A681A64FB687A88A3F84620FB687A88A3F84420FB68BA689A63FB687A887F
:204DC000DA87FB687A889A87FB680022DA64FB6800221A65FB68DB68B3F5E06F02D83B8AE9
:204DE000012B08D9FB681B685A68FB681B6822F480525A6007E0FB681B685A68FB681B6801
:204E000042F480525A60FB681B681B6803F04003402B07D0FB681B681A68FB681B6842F06F
:204E200040021A60FB68DB68B3F5E06F7CD9FB685B68002B02D07B8A012B69D1FB689B6BCD
:204E40001A88FB681B68DA60FB689B6B9A1CFB689A63FB68DB8F9BB2013B9AB2FB68DA87AB
:204E600056E0FB681B689B6803F00203022B1BD1FB68DB8F9BB2002B16D07B6A012B13D1E2
:204E8000FB689B6B1A88FB681B68DA60FB689B6B9A1CFB689A63FB68DB8F9BB2013B9AB2C6
:204EA000FB68DA8700237B62FB681B689B6803F00103012B1CD1FB68B3F846309BB2002B39
:204EC00016D0FB681B68DA68FB681B6C92B21A80FB681B6C9A1CFB681A64FB68B3F84630F7
:204EE0009BB2013B9AB2FB68A3F8462001237B62FDF704FA0246FB69D31A3A6B9A4207D88D
:204F00003B6BB3F1FF3F03D0032387F82330FBE0FB68DB8F9BB2002BA3D1FB68B3F8463026
:204F20009BB2002B9DD1DFE0FB685B68002B03D07B8A012B40F0CB80FB68DB8F9BB2012BB6
:204F400012D9FB689B6B1A88FB681B68DA60FB689B6B9A1CFB689A63FB68DB8F9BB2023B65
:204F60009AB2FB68DA87B2E0FB689A6BFB681B680C3312781A70FB689B6B5A1CFB689A63AF
:204F8000FB68DB8F9BB2013B9AB2FB68DA879EE0FB681B689B6803F00203022B34D1FB68B7
:204FA000DB8F9BB2002B2FD07B6A012B2CD1FB68DB8F9BB2012B12D9FB689B6B1A88FB6863
:204FC0001B68DA60FB689B6B9A1CFB689A63FB68DB8F9BB2023B9AB2FB68DA8712E0FB68D9
:204FE0009A6BFB681B680C3312781A70FB689B6B5A1CFB689A63FB68DB8F9BB2013B9AB292
:20500000FB68DA8700237B62FB681B689B6803F00103012B48D1FB68B3F846309BB2002BAB
:2050200042D0FB68B3F846309BB2012B23D9FB681B68DA68FB681B6C92B21A80FB681B6C8B
:205040009A1CFB681A64FB68B3F846309BB2023B9AB2FB68A3F84620FB68B3F846309BB22A
:20506000012B1FD8FB681B685A68FB681B6842F480525A6016E0FB681B6803F10C02FB687C
:205080001B6C1278D2B21A70FB681B6C5A1CFB681A64FB68B3F846309BB2013B9AB2FB68F4
:2050A000A3F8462001237B62FDF728F90246FB69D31A3A6B9A4203D83B6BB3F1FF3F02D189
:2050C0003B6B002B03D1032387F823301CE0FB68DB8F9BB2002B7FF45BAFFB68B3F84630F1
:2050E0009BB2002B7FF454AFFA69396BF86800F0D3FA0346002B06D0012387F82330FB68FB
:2051000020221A6600E000BFFB68012283F85D20FB68002283F85C2097F823301846283795
:20512000BD4680BD80B588B000AF78607B681B685B68FB617B681B689B68BB61BB699B0969
:2051400003F00103002B0FD1BB6903F00103002B0AD0FB699B0903F00103002B04D07B684C
:20516000DB6C78689847D7E0BB695B0803F00103002B0AD0FB69DB0903F00103002B04D0B1
:205180007B681B6D78689847C6E0BB695B0903F00103002B0CD1BB699B0903F00103002BCE
:2051A00006D1BB691B0A03F00103002B00F0B480FB695B0903F00103002B00F0AD80BB695E
:2051C0009B0903F00103002B23D07B6893F85D30DBB2032B11D07B681B6E43F004027B68F7
:2051E0001A6600237B617B681B68DB687B617B681B689B687B617B690BE000233B617B68F5
:205200001B68DB683B617B681B689B683B613B6982E0BB695B0903F00103002B14D07B68B0
:205220001B6E43F001027B681A660023FB607B681B689B68FB607B681B681A687B681B68BC
:2052400022F040021A60FB68BB691B0A03F00103002B0CD07B681B6E43F008027B681A66CA
:205260000023BB607B681B689B68BB60BB687B681B6E002B4FD07B681B685A687B681B6805
:2052800022F0E0025A607B68012283F85D20FB6903F00203002B04D1FB6903F00103002B80
:2052A00034D07B681B685A687B681B6822F003025A607B689B6D002B11D07B689B6D184A47
:2052C0001A657B689B6D1846FDF7B6FA0346002B05D07B681B6E43F040027B681A667B68F2
:2052E0005B6D002B16D07B685B6D0D4A1A657B685B6D1846FDF7A0FA0346002B0AD07B688C
:205300001B6E43F040027B681A6603E0786800F009F800E000BF00BF2037BD4680BD00BFC4
:205320003953000880B483B000AF786000BF0C37BD465DF8047B704780B584B000AF78606B
:205340007B689B6BFB60FB680022A3F84620FB680022DA87F868FFF7E5FF00BF1037BD465A
:2053600080BD000080B588B000AFF860B9603B601346FB71FCF7C2FF0246BB6A9B1A3A688B
:205380001344FB61FCF7BAFFB861394B1B685B011B0DFA6902FB03F37B6154E03B68B3F15D
:2053A000FF3F50D0FCF7AAFF0246BB69D31AFA699A4202D9FB69002B3DD1FB681B685A683B
:2053C000FB681B6822F0E0025A60FB685B68B3F5827F11D1FB689B68B3F5004F04D0FB68F4
:2053E0009B68B3F5806F07D1FB681B681A68FB681B6822F040021A60FB689B6AB3F5005FB0
:205400000FD1FB681B681A68FB681B6822F400521A60FB681B681A68FB681B6842F40052A6
:205420001A60FB68012283F85D20FB68002283F85C20032317E07B69002B01D10023FB617B
:205440007B69013B7B61FB681B689A68BB681340BA689A420CBF01230023DBB21A46FB7981
:205460009A429BD1002318462037BD4680BD00BF0800002080B58AB000AFF860B9607A607C
:205480003B600023FB75FCF739FF02463B6B9B1A3A6813447B62FCF731FF3862FB681B6897
:2054A0000C33FB613D4B1A6813469B001344DA00D31A1B0D7A6A02FB03F3BB6160E0BB68B7
:2054C000B3F5C06F07D17B68002B04D1FB691B78DBB2FB75FB7D3B68B3F1FF3F50D0FCF736
:2054E0000DFF02463B6AD31A7A6A9A4202D97B6A002B3DD1FB681B685A68FB681B6822F06D
:20550000E0025A60FB685B68B3F5827F11D1FB689B68B3F5004F04D0FB689B68B3F5806F10
:2055200007D1FB681B681A68FB681B6822F040021A60FB689B6AB3F5005F0FD1FB681B6842
:205540001A68FB681B6822F400521A60FB681B681A68FB681B6842F400521A60FB6801222B
:2055600083F85D20FB68002283F85C20032310E0BB69002B01D100237B62BB69013BBB6104
:20558000FB681B689A68BB6813407A689A4296D1002318462837BD4680BD00BF0800002081
:2055A00080B588B002AFF860B9607A60FB685B68B3F5827F11D1FB689B68B3F5004F04D0A0
:2055C000FB689B68B3F5806F07D1FB681B681A68FB681B6822F040021A60FB685B68B3F50C
:2055E000827F12D17B680093BB6800228021F868FFF7B8FE0346002B21D0FB681B6E43F0DB
:205600002002FB681A6603233DE0214B1B68214AA2FB03235B0D4FF47A7202FB03F37B61BF
:205620007B69002B0AD07B69013B7B61FB681B689B6803F08003802BF2D000E000BFFB68B7
:205640005B68B3F5827F1DD1FB689B68B3F5004F04D0FB689B68B3F5806F13D17B68009368
:20566000BB6800224FF4C061F868FFF703FF0346002B07D0FB681B6E43F02002FB681A66BA
:20568000032300E0002318461837BD4680BD00BF08000020819F5E1680B588B002AFF86003
:2056A000B9607A607B680093BB6800224FF4C051F868FFF7DFFE0346002B07D0FB681B6E7E
:2056C00043F02002FB681A66032346E0254B1B68254AA2FB03235B0D4FF47A7202FB03F397
:2056E0007B61FB685B68B3F5827F12D17B680093BB6800228021F868FFF734FE0346002BC4
:2057000016D0FB681B6E43F02002FB681A66032323E07B69002B0AD07B69013B7B61FB680E
:205720001B689B6803F08003802BF2D000E000BF7B680093BB6800224FF4C061F868FFF7EC
:2057400099FE0346002B07D0FB681B6E43F02002FB681A66032300E0002318461837BD466A
:2057600080BD00BF08000020819F5E1680B582B000AF78607B68002B01D1012349E07B6873
:2057800093F83D30DBB2002B06D17B68002283F83C207868FBF736FD7B68022283F83D20C2
:2057A0007B681A687B6804331946104600F0B0FD7B68012283F848207B68012283F83E2050
:2057C0007B68012283F83F207B68012283F840207B68012283F841207B68012283F8422043
:2057E0007B68012283F843207B68012283F844207B68012283F845207B68012283F8462013
:205800007B68012283F847207B68012283F83D20002318460837BD4680BD000080B485B059
:2058200000AF78607B6893F83D30DBB2012B01D0012354E07B68022283F83D207B681B68DF
:20584000DA687B681B6842F00102DA607B681B68264A934222D07B681B68B3F1804F1DD0CE
:205860007B681B68224A934218D07B681B68214A934213D07B681B681F4A93420ED07B68AB
:205880001B681E4A934209D07B681B681C4A934204D07B681B681B4A934215D17B681B680E
:2058A0009A68194B1340FB60FB68062B15D0FB68B3F5803F11D07B681B681A687B681B6862
:2058C00042F001021A6008E07B681B681A687B681B6842F001021A6000E000BF0023184614
:2058E0001437BD465DF8047B704700BF000001400004004000080040000C004000040140B2
:2059000000400140001800400700010080B582B000AF78607B68002B01D1012349E07B68A8
:2059200093F83D30DBB2002B06D17B68002283F83C20786800F041F87B68022283F83D201C
:205940007B681A687B6804331946104600F0E0FC7B68012283F848207B68012283F83E207F
:205960007B68012283F83F207B68012283F840207B68012283F841207B68012283F84220A1
:205980007B68012283F843207B68012283F844207B68012283F845207B68012283F8462071
:2059A0007B68012283F847207B68012283F83D20002318460837BD4680BD80B483B000AF0B
:2059C000786000BF0C37BD465DF8047B7047000080B584B000AF786039603B68002B09D12E
:2059E0007B6893F83E30DBB2012B14BF01230023DBB23CE03B68042B09D17B6893F83F30C6
:205A0000DBB2012B14BF01230023DBB22FE03B68082B09D17B6893F84030DBB2012B14BFFD
:205A200001230023DBB222E03B680C2B09D17B6893F84130DBB2012B14BF01230023DBB29D
:205A400015E03B68102B09D17B6893F84230DBB2012B14BF01230023DBB208E07B6893F803
:205A60004330DBB2012B14BF01230023DBB2002B01D0012392E03B68002B04D17B68022217
:205A800083F83E2023E03B68042B04D17B68022283F83F201BE03B68082B04D17B680222F5
:205AA00083F8402013E03B680C2B04D17B68022283F841200BE03B68102B04D17B680222E1
:205AC00083F8422003E07B68022283F843207B681B6801223968184600F0B2FF7B681B6892
:205AE000304A934204D07B681B682F4A934201D1012300E00023002B07D07B681B685A6CA8
:205B00007B681B6842F400425A647B681B68254A934222D07B681B68B3F1804F1DD07B68A4
:205B20001B68224A934218D07B681B68204A934213D07B681B681F4A93420ED07B681B6849
:205B4000194A934209D07B681B681B4A934204D07B681B68194A934215D17B681B689A68D4
:205B6000174B1340FB60FB68062B15D0FB68B3F5803F11D07B681B681A687B681B6842F071
:205B800001021A6008E07B681B681A687B681B6842F001021A6000E000BF0023184610373C
:205BA000BD4680BD00000140000401400004004000080040000C004000400140001800406E
:205BC0000700010080B582B000AF786039607B681B6800223968184600F032FF7B681B6828
:205BE000364A934204D07B681B68354A934201D1012300E00023002B17D07B681B681A6ACD
:205C000041F211131340002B0FD17B681B681A6A40F244431340002B07D17B681B685A6CAA
:205C20007B681B6822F400425A647B681B681A6A41F211131340002B0FD17B681B681A6A5F
:205C400040F244431340002B07D17B681B681A687B681B6822F001021A603B68002B04D1B5
:205C60007B68012283F83E2023E03B68042B04D17B68012283F83F201BE03B68082B04D115
:205C80007B68012283F8402013E03B680C2B04D17B68012283F841200BE03B68102B04D101
:205CA0007B68012283F8422003E07B68012283F84320002318460837BD4680BD00000140F9
:205CC0000004014080B582B000AF78607B681B681B6903F00203022B22D17B681B68DB68E6
:205CE00003F00203022B1BD17B681B686FF002021A617B6801221A777B681B689B6903F05B
:205D00000303002B03D0786800F0E4FA05E0786800F0D6FA786800F0E7FA7B6800221A7705
:205D20007B681B681B6903F00403042B22D17B681B68DB6803F00403042B1BD17B681B6839
:205D40006FF004021A617B6802221A777B681B689B6903F44073002B03D0786800F0BAFA35
:205D600005E0786800F0ACFA786800F0BDFA7B6800221A777B681B681B6903F00803082B90
:205D800022D17B681B68DB6803F00803082B1BD17B681B686FF008021A617B6804221A7766
:205DA0007B681B68DB6903F00303002B03D0786800F090FA05E0786800F082FA786800F0E7
:205DC00093FA7B6800221A777B681B681B6903F01003102B22D17B681B68DB6803F01003D3
:205DE000102B1BD17B681B686FF010021A617B6808221A777B681B68DB6903F44073002B0D
:205E000003D0786800F066FA05E0786800F058FA786800F069FA7B6800221A777B681B6849
:205E20001B6903F00103012B0ED17B681B68DB6803F00103012B07D17B681B686FF0010270
:205E40001A617868FBF774F87B681B681B6903F08003802B0ED17B681B68DB6803F0800380
:205E6000802B07D17B681B686FF080021A61786800F022FF7B681B681B6903F48073B3F570
:205E8000807F0ED17B681B68DB6803F08003802B07D17B681B686FF480721A61786800F07C
:205EA00015FF7B681B681B6903F04003402B0ED17B681B68DB6803F04003402B07D17B685F
:205EC0001B686FF040021A61786800F017FA7B681B681B6903F02003202B0ED17B681B68B2
:205EE000DB6803F02003202B07D17B681B686FF020021A61786800F0D5FE00BF0837BD4620
:205F000080BD000080B586B000AFF860B9607A600023FB75FB6893F83C30012B01D10223CF
:205F2000FFE0FB68012283F83C207B68142B00F2F08001A252F823F08D5F00081361000831
:205F40001361000813610008CD5F00081361000813610008136100080F60000813610008AE
:205F600013610008136100084F600008136100081361000813610008916000081361000889
:205F80001361000813610008D1600008FB681B68B968184600F05CFAFB681B689A69FB68D9
:205FA0001B6842F008029A61FB681B689A69FB681B6822F004029A61FB681B689969BB683A
:205FC0001A69FB681B680A439A61A5E0FB681B68B968184600F0AEFAFB681B689A69FB6842
:205FE0001B6842F400629A61FB681B689A69FB681B6822F480629A61FB681B689969BB68BE
:206000001B691A02FB681B680A439A6184E0FB681B68B968184600F005FBFB681B68DA69D0
:20602000FB681B6842F00802DA61FB681B68DA69FB681B6822F00402DA61FB681B68D96979
:20604000BB681A69FB681B680A43DA6164E0FB681B68B968184600F05BFBFB681B68DA6914
:20606000FB681B6842F40062DA61FB681B68DA69FB681B6822F48062DA61FB681B68D969FD
:20608000BB681B691A02FB681B680A43DA6143E0FB681B68B968184600F092FBFB681B68E4
:2060A0005A6DFB681B6842F008025A65FB681B685A6DFB681B6822F004025A65FB681B68E8
:2060C000596DBB681A69FB681B680A435A6523E0FB681B68B968184600F0C4FBFB681B6865
:2060E0005A6DFB681B6842F400625A65FB681B685A6DFB681B6822F480625A65FB681B686C
:20610000596DBB681B691A02FB681B680A435A6502E00123FB7500BFFB68002283F83C2073
:20612000FB7D18461837BD4680BD00BF80B584B000AF786039600023FB737B6893F83C3047
:20614000012B01D10223B4E07B68012283F83C207B68022283F83D207B681B689B68BB6048
:20616000BA68564B1340BB60BB6823F47F43BB607B681B68BA689A603B681B68B3F5005F28
:206180003ED0B3F5005F00F28780B3F5805F00F08680B3F5805F7FD8702B1AD0702B7BD823
:2061A000602B50D0602B77D8502B3CD0502B73D8402B58D0402B6FD8302B64D0302B6BD89B
:2061C000202B60D0202B67D8002B5CD0102B5AD062E07B6818683B6899683B685A683B68AD
:2061E000DB6800F00DFC7B681B689B68BB60BB6843F07703BB607B681B68BA689A604FE043
:206200007B6818683B6899683B685A683B68DB6800F0F6FB7B681B689A687B681B6842F447
:2062200080429A603CE07B6818683B6859683B68DB681A4600F06AFB7B681B6850211846EF
:2062400000F0C3FB2CE07B6818683B6859683B68DB681A4600F089FB7B681B6860211846BE
:2062600000F0B3FB1CE07B6818683B6859683B68DB681A4600F04AFB7B681B68402118461D
:2062800000F0A3FB0CE07B681A683B681B681946104600F09AFB03E00123FB7300E000BFAB
:2062A0007B68012283F83D207B68002283F83C20FB7B18461037BD4680BD00BF88FFFEFF86
:2062C00080B483B000AF786000BF0C37BD465DF8047B704780B483B000AF786000BF0C3750
:2062E000BD465DF8047B704780B483B000AF786000BF0C37BD465DF8047B704780B483B02B
:2063000000AF786000BF0C37BD465DF8047B704780B485B000AF786039607B681B68FB601C
:206320007B68404A934213D07B68B3F1804F0FD07B683D4A93420BD07B683C4A934207D0D4
:206340007B683B4A934203D07B683A4A934208D1FB6823F07003FB603B685B68FA681343B6
:20636000FB607B682F4A93422BD07B68B3F1804F27D07B682C4A934223D07B682B4A9342FB
:206380001FD07B682A4A93421BD07B68294A934217D07B68284A934213D07B68274A9342AF
:2063A0000FD07B68264A93420BD07B68254A934207D07B68244A934203D07B68234A9342DF
:2063C00008D1FB6823F44073FB603B68DB68FA681343FB60FB6823F080023B685B691343AE
:2063E000FB607B68FA681A603B689A687B68DA623B681A687B689A627B680A4A934203D0DC
:206400007B680C4A934203D13B681A697B681A637B6801225A6100BF1437BD465DF8047B72
:20642000704700BF000001400004004000080040000C004000040140004001400044014082
:206440000048014000180040001C00400020004080B487B000AF786039607B681B6A23F099
:2064600001027B681A627B681B6A7B617B685B683B617B689B69FB60FA682B4B1340FB606C
:20648000FB6823F00303FB603B681B68FA681343FB607B6923F002037B613B689B687A698B
:2064A00013437B617B68214A934203D07B68204A93420CD17B6923F008037B613B68DB68F1
:2064C0007A6913437B617B6923F004037B617B68164A934203D07B68154A934211D13B6945
:2064E00023F480733B613B6923F400733B613B685B693A6913433B613B689B693A69134390
:206500003B617B683A695A607B68FA689A613B685A687B685A637B687A691A6200BF1C3706
:20652000BD465DF8047B70478FFFFEFF000001400004014080B487B000AF786039607B684E
:206540001B6A23F010027B681A627B681B6A7B617B685B683B617B689B69FB60FA682E4B8F
:206560001340FB60FB6823F44073FB603B681B681B02FA681343FB607B6923F020037B6199
:206580003B689B681B017A6913437B617B68234A934203D07B68224A93420DD17B6923F033
:2065A00080037B613B68DB681B017A6913437B617B6923F040037B617B68184A934203D062
:2065C0007B68174A934213D13B6923F480633B613B6923F400633B613B685B699B003A6925
:2065E00013433B613B689B699B003A6913433B617B683A695A607B68FA689A613B685A68ED
:206600007B689A637B687A691A6200BF1C37BD465DF8047B704700BFFF8FFFFE000001402D
:206620000004014080B487B000AF786039607B681B6A23F480727B681A627B681B6A7B6176
:206640007B685B683B617B68DB69FB60FA682D4B1340FB60FB6823F00303FB603B681B68F1
:20666000FA681343FB607B6923F400737B613B689B681B027A6913437B617B68224A9342C1
:2066800003D07B68214A93420DD17B6923F400637B613B68DB681B027A6913437B617B69F0
:2066A00023F480637B617B68174A934203D07B68164A934213D13B6923F480533B613B694E
:2066C00023F400533B613B685B691B013A6913433B613B689B691B013A6913433B617B6861
:2066E0003A695A607B68FA68DA613B685A687B68DA637B687A691A6200BF1C37BD465DF88C
:20670000047B70478FFFFEFF000001400004014080B487B000AF786039607B681B6A23F428
:2067200080527B681A627B681B6A3B617B685B687B617B68DB69FB60FA681E4B1340FB60A7
:20674000FB6823F44073FB603B681B681B02FA681343FB603B6923F400533B613B689B680B
:206760001B033A6913433B617B68134A934203D07B68124A934209D17B6923F480437B61F6
:206780003B685B699B017A6913437B617B687A695A607B68FA68DA613B685A687B681A641B
:2067A0007B683A691A6200BF1C37BD465DF8047B704700BFFF8FFFFE000001400004014067
:2067C00080B487B000AF786039607B681B6A23F480327B681A627B681B6A3B617B685B68F4
:2067E0007B617B685B6DFB60FA681B4B1340FB603B681B68FA681343FB603B6923F400331A
:206800003B613B689B681B043A6913433B617B68124A934203D07B68114A934209D17B69CA
:2068200023F480337B613B685B691B027A6913437B617B687A695A607B68FA685A653B68F2
:206840005A687B689A657B683A691A6200BF1C37BD465DF8047B70478FFFFEFF0000014026
:206860000004014080B487B000AF786039607B681B6A23F480127B681A627B681B6A3B61D4
:206880007B685B687B617B685B6DFB60FA681C4B1340FB603B681B681B02FA681343FB60A3
:2068A0003B6923F400133B613B689B681B053A6913433B617B68134A934203D07B68124AEC
:2068C000934209D17B6923F480237B613B685B699B027A6913437B617B687A695A607B6813
:2068E000FA685A653B685A687B68DA657B683A691A6200BF1C37BD465DF8047B704700BF8F
:20690000FF8FFFFE000001400004014080B487B000AFF860B9607A60FB681B6A7B61FB68DA
