:200000000040002015B0000001C9011001C9011001C9011001C9011001C9011001C9011099
:1C00200001C9011001C9011001C9011001C9011001C9011001C901103FC9011089
:20003C002DE9F04FCF4C04F118012046ADF1340D0AF048FDD14D002604F1A40A4FF6FF7007
:20005C000123667032462082294650460AF0BAFECB480223324629460AF0B4FECE480423B1
:20007C00324629460AF0AEFE04F14408042010223146A070404609F025F904F15409102298
:20009C004846314609F01EF904F11C073E6004F10A052E7007206072DFF808B3E6710222D1
:2000BC002672594610200346CDF8008004F086FC102003225946CDF80090034604F07EFCB9
:2000DC000422102059460097134604F077FC4FF0080A4FF003094FF0010B05F12A0007901A
:2000FC0005F17900089005F11E00099005F15A000A9024350B9517E06078A28FE18FB4F831
:20011C004050B4F8423006280ED1ADF80A20ADF80C10ADF80E509A48ADF810300DF0BCFAFB
:20013C00584602A908F002FEA069B44A31464FF0FF3300F029FA071CF6D0059606A80DF130
:20015C001A0105AA0BF084FE002840F0BD81BDF818102078102940F0B3819DF81A1088420B
:20017C0040F0AE81059D29884FF6FF728A4200F09C812B78A23B00F07F812E3B40F0A081F8
:20019C00A978B046002900F03B81891E00F00C81491E012940F2D580891E00F09980491E04
:2001BC006ED0491E5BD0083900F05681891E40F0598194F83A10A8880529ADF8080046D0A3
:2001DC006F488DF812B00DF067FA94F83A0001281ED004281CD003280DD002280BD0059808
:2001FC00C188ADF80A100189ADF80C104189ADF80E10818927E0A18FE08FADF80A10B4F8E8
:20021C004020ADF80C00B4F84210ADF80E201AE0A08FE9888842D8BF081CADF80A00298960
:20023C00E08F8842D8BF081CADF80C006989B4F840008842D8BF081CADF80E00A989B4F809
:20025C004200884200DC0846ADF8100001E08DF81260A949102002AA04F0B0FB02E14E48D9
:20027C000DF01AFA6B78002B40F0FC80E88860822889A0826889E08241480DF047F8F1E089
:20029C00AA88B449102004F099FB07984146062209F018F86682A682E682A8792073384858
:2002BC000DF0FAF93C480DF0F7F9D8464FF6FF70237920824BB9A879082814BF0420052040
:2002DC00607058460DF052F8CCE084F80190C9E06B787BBB291D0A68079802608988818007
:2002FC000623637068892082E8896082288AA082688A94F83A10E082E8780129E07218BF4F
:20031C0002290BD1994910201F2204F057FB4FF47A7180B241431A480BF0ACFA6889042322
:20033C00009091490193EA7810202D1D2B4604F045FB9AE06878312840F08B80E6700420BA
:20035C002DE06B78002B40F08480A878E1896278032817D0E078257931B9012814BF267149
:20037C00E67007E0F8090020054303D080480BF081FA6278072AE2D1062010E089D300007A
:20039C00C00A0020062A09D0E578002D08BF84F801906AD0022002E0E40A002007206070AD
:2003BC0063E0C04607CC00006B78002B51D1EB78617893B902291DD007291BD0062902D118
:2003DC002079012816D1032914D069480CF09EFF80B958460CF0CAFF0CE00BF045FF0246EF
:2003FC00A07960490090089843460190102004F0E5FA68706D78002D2BD133E00700008052
:20041C006B7833BB5B485649009002221020034604F0D4FA58484A465149009010200346EB
:20043C0004F0CCFAED1C296809980160A9888180207884F801B00BF017FF02465B460A9DB2
:20045C006079484900901020019504F0B7FAC0B258B184F801A008E0AA8840491020052388
:20047C0004F0ACFAB8F1010F2AD1256A45B3296831B36078884723E06879132820D12889AE
:20049C00012808D1607B022805D13E480DF004F90BF010FD14E035491020052204F08EFA96
:2004BC0081B238480BF0E6F90AE06888C00B07D3324804222A4900901346102004F07EFA7C
:2004DC00059808B10DF09AF82579E07879082ED355EA00032BD0204600787DB9E279217A5C
:2004FC008DF808200B9D8DF809102B680DF10A010B60AA888A8003E0051601108DF808907E
:20051C00627A8DF81020A17A8DF811100BF0ACFE1149024602AB102004F050FA38B1256A93
:20053C0084F801A01DB1296809B150468847B80803D31349304608F0F9FBF808FFF4F4AD1C
:20055C00607B401E3FF4D8AD401E7FF4EDAD0BF0B1FCE9E591AA000059440110C1170110DB
:20057C00F5610000094501102173000041CF00009C0A00203C0A00204C0A0020140A002026
:20059C00320A0020E40A0020DFF800F0F99B01102DE9F04F0F46CD4C0168E1624168806869
:2005BC00ADF11C0DE060C548A1608047C448E16A0160A168DFF810A34160E168DFF80493A0
:2005DC008160CE49002FA346C1606FD03D68E8788DF80C0028798DF80D0003A800F016FA1B
:2005FC00A86808B1C6490160E86808B1C5490160C54C287820706878BE686070A878B268DD
:20061C00A0703178A2607368E1702E696360EA6926627968E2620868E06068696062A86929
:20063C007B68A062286A9E68206395F8240084F834001EB900200CF08FFB00E06661786839
:20065C00C06818B900200CF087FB00E0A0617868006918B900200CF07FFB00E0E061786855
:20067C00406818B900200CF077FB00E0206128692062F86881680E6806B9D24ED0494FF0ED
:20069C0001084E60C66881F8018036B900200CF063FB4D462E68F86801E04D462E60006803
:2006BC005446FB68A0615868E06107E000200CF053FB4D462E684FF001085446361DC74960
:2006DC003668621C04F114035020B04710B1286880688047DBF808008047C24E00278146CF
:2006FC003B46BF487770694620610422337038460BF034F80098B0F5801F0CD020B90BF045
:20071C00A5FE00F0E3FB08E00AF080FB0CF056FD0420708001E00BF099FE3846BA4EA06093
:20073C002B68B760986980477060AF4880F800803946418014200CF021FEFF211422A06285
:20075C000CF0B2FFE01CFF2102220CF0ADFF14200CF014FEA54F38603868002114220CF027
:20077C00A3FF002000F06AF940460AF025FFA0480188FF2906D1022101807822001D0021B8
:20079C000CF092FF032000F045F9042000F046F9052000F047F9062000F048F9072009F040
:2007BC005FFE944E0820307006F1240000F042F90AF088FC06F1360A05200A2152460CF037
:2007DC0014FA38B10020C0F10901401C0AF8011B0A28F8DB3078102106F034FD2B6886494A
:2007FC0009200DF10E025E68087001AB10200021B047A06AE1690A260A309DF80E20761E5F
:20081C0000F8012BF9D1891EE161DBF80C104846884704F120002B68626A059040461E6983
:20083C00DFF8D88104F120034146B04710B1286880688047B8460BF015FF5FEA000903D0A4
:20085C0007F038FB4FF0FF39002643E00298216910F8062CA0F10C07032A03D1002939D05D
:20087C00884737E0A16A9DF810C00A223046491E11F8013F9C4506D0521E00F10100F7D1D3
:20089C004FF0FF0A01E05FFA80FA2868BAF1FF0F00F108001CD038790BF094F8B97901297E
:2008BC0004D0022904BF0299887001E002990870029950460CF0EEF80CE0C0464149001034
:2008DC00F8440020A01B0020A0190020A4150020006880472868C36904A902AA0DF10F00C2
:2008FC0098470028B2D0D8F800007700C35B6BB9761CF6B20A2EF8DB2BE0C046F4DC0000A4
:20091C0061C3000011CF0000701800200A2E20DADBF808008047D8F80010002231F807A069
:20093C00CA53DBF80C108847354850F8262026705146304690470646FF202070DBF8080065
:20095C008047D8F800107A5A16437E52DBF80C1088470BF087FE0746B9451AD007B9294F2C
:20097C00E069B84238BF071CDBF80800804781462868016A206A8847626A28681F49059BDD
:20099C00521C6262C6683846B047DBF80C1048468847A768296860691431AFB9D8F8000034
:2009BC000A270026835B33B10969606988472968D8F8000014317F1E06F10206F2D107E00C
:2009DC00081B00209FBE0000096988472968143109684FF0FF3088472DE7C046F9C70000BC
:2009FC0089CF0000941B0020901B00207824002040160020081200208A24002019BA0000DC
:200A1C0030EA00008EC2F52824240020DFF800F0B9920110DFF800F0C9790110DFF800F0C7
:200A3C0059880110DFF800F0D9750110DFF800F07D810110DFF800F0518B01102DE9F84F9B
:200A5C00DFF8BC13DFF8BC23DFF8BC5308700821002010600D23DFF8B4034FF44D720170D6
:200A7C0043808280DFF8A8030560AC7EDFF8A4030470FF2CE97E417008BFFF292A7F8270C5
:200A9C006B7FC370AE7F0671ED7F457115D1FF2A08BFFF2B11D1FF2E08BFFF2D0DD1DFF8A0
:200ABC0078130A7802704B7843708A788270CB78C3700A79027149794171DFF8601302788D
:200ADC00DFF85C83DFF85C93DFF85C730A70FF2543784B7082788A70C378CB7002790A7164
:200AFC004079487188F8005088F8015088F8025088F8035088F8045088F805500020CB4945
:200B1C000880D9F83440CA49607808702278C9493A70A0780870A2681079C74A411E11701F
:200B3C00E078C649C64A0870E068106008B90CF013F92069C34E306008B90CF00DF93068A4
:200B5C00DFF804A301688847326852F8041F50468847BE48BE49CAF82000CAF824106069A9
:200B7C00BC49086008B90CF0F7F8A069BA49086008B90CF0F1F8E069B849086008B90CF0B7
:200B9C00EBF8DFF8DCB2B74C9BF804000CF0F6FB0028206075D09BF80500B34E0CF0EEFBFF
:200BBC00002830606DD09BF80600DFF8C0A20CF0E5FB0028CAF8000063D09BF807000CF0C3
:200BDC00DDFBAB49002808605BD039789BF80000891C484380B20CF0D1FBA6490028886005
:200BFC004FD03878002862D0BBF80210484380B20CF0C4FBA04A0028506042D038780CF0F3
:200C1C00BDFB9E49002808603BD0387840000CF0B5FB9B490028086033D0387818214843F7
:200C3C000CF0ACFB974A106058B3387840010CF0A5FB9549086020B3387800010CF09EFBAD
:200C5C0092490860E8B1387800010CF097FB90490860B0B13878302148430CF08FFB8D4AD2
:200C7C00106070B18C483978007848430CF086FB8A4A106028B138780CF080FB8849086045
:200C9C0018B9BDE8F14F05F09BBB4FF0000B09E00CF044FB002141808160018002230371EC
:200CBC000BF1010B39785FFA8BF08842F0D32268694F0120107121680D7320684573216848
:200CDC008D732068C57321680D7400212068457400202268D172A02221684871032120682F
:200CFC00C28001720720226850720021206881722821206801224182C276002021684877BD
:200D1C000022206880F85E200121226811770120216881F85D0001223068027131680D731C
:200D3C003068457331688D733068C57331680D7400213068457400203268D172002231689A
:200D5C004871306882724FF420703168C88008818A7401213368D974DAF800201573DAF8A1
:200D7C0000104D73DAF800209573DAF80010CD73DAF8002015740022DAF800104D74012109
:200D9C00DAF80030DA720023DAF800201171DAF800104B71DAF80010C88008818B720520DF
:200DBC00DAF800209374DAF800103E4AC874106880473968054608688047396851F8042FF9
:200DDC0000209047D9F80C101C4B0A881878364902430A802846354A136898470C2134484C
:200DFC0000F068F8404600F069F800F06BF8BDE8F44F034800784FF4005106F023BA00BF8C
:200E1C006E4F0020044F0020B63F0050604E0020084F00202C4E0020E81200503C4E00204E
:200E3C00344E0020B0EC00007B4F00200C4F00206D4F00206B4F0020724F00206C4F002081
:200E5C00F04E0020F44E00207C4B002099D30000B9D30000F84E0020FC4E00205C24002067
:200E7C00E41A0020104F0020144F0020184F00201C4F002030240020684E0020004F00206B
:200E9C0060240020804E0020844E0020884E00208C4E0020904E0020B41B0020642400202D
:200EBC0068240020AC150020544F0020B0150020F84D0020DFF800F0E5710110DFF800F087
:200EDC001D6E0110DFF800F04D7101102DE9FE430AF05CFDDFF80481814608F10200008874
:200EFC000027001F84B2042C5ADBFF254FF6FF762046694604220AF031FCBDF800309E42F0
:200F1C0037D0002B35D0D80BC2032FD19D422DD0381FDDB280B2042815DBB0F5805F12DA56
:200F3C0000F18852126801A90A60BDF804108D4207D0BDF80610401A001F80B20428ECDA65
:200F5C0001E0012300E00023BDF802001BBB211A001D8BB282B207F1885118460AF0FEFBF5
:200F7C00BDF80200C119091D8FB214E0BDF8020011E0BDF8020003466FF30E0363B9011D14
:200F9C008C4208DA00200BF0E7FE48460BF0C8FE0020BDE8FE83241A241FA4B2042CA7DA68
:200FBC0009F034FF3FB10C484FF088513A460CF0E2FA0CF003F948460BF0B2FE42465078B4
:200FDC0000281CBF0020011C03D1C7F58054391DA0B25180BDE8FE8304E00100941B0020FE
:040FFC0030BF70474B
:20100000B41200001810000015AB0110FDB301106DC00110FDAE011099B5011000000000F7
:08102000000000002D0000009B
:20102800B01200003C100000B1C00110A9BF011067C0011069B80110000000000000000035
:041048003000000074
:20104C00B012000060100000BDC00110CDB30110D9BD01106DB3011000000000000000005B
:04106C00310000004F
:2010700000000000281B002004000000000000000000000020000000E8C9011030000000E7
:2010900028100000301B00200400000000000000000000000C000000D8CA011018000000C2
:2010B0004C100000381B002004000000000000000000000024000000F0CA01101800000046
:2010D00000000000401B00200400000000000000000000001000000018CA01102C00000052
:2010F00000100000501B0020040000000000000000000000200000006CCA011024000000B6
:20111000FFFFFFFF581B00200400000000000000000000002800000090CA01102400000075
:20113000FFFFFFFF601B00200400000000000000000000001400000008CB011018000000F4
:20115000FFFFFFFF681B002004000000000000000000000058000000B4C9011034000000C2
:20117000FFFFFFFF701B00200400000000000000000000001000000020CB01101800000090
:20119000FFFFFFFF781B00200400000000000000000000001C000000B4CA011024000000BD
:2011B000FFFFFFFF801B00200400000000000000000000003800000044CA011028000000E5
:2011D000FFFFFFFF881B00200400000000000000000000005400000078C901103C0000005A
:0811F0000100000094EC000076
:0411F80001000000F2
:0411FC0000000E00E1
:0412000000000F00DB
:0412040032000000B4
:0412080001000000E1
:04120C00581A00204C
:0412100000020000D8
:0412140000000000D6
:0412180001C90110F7
:04121C0000000000CE
:0412200000000000CA
:0412240008000000BE
:0412280000002200A0
:04122C00A8180020DE
:0412300000000000BA
:0412340000000000B6
:0412380008000000AA
:04123C00181A00205C
:0412400000000000AA
:0412440000000000A6
:04124800080000009A
:04124C00000000009E
:04125000000000009A
:041254000000000096
:041258000000000092
:04125C00010000008D
:041260004019002011
:041264000600000080
:041268000100000081
:04126C00DC1700206B
:04127000000000007A
:041274000000000076
:041278000002000070
:04127C00000000006E
:02128000290043
:02128200010069
:02128400250043
:02128600300036
:02128800310033
:02128A002D0035
:02128C0001005F
:01128E00015E
:081290000300000024EC000043
:0812980000000000000000004E
:0412A0000000010049
:0412A4000000030043
:0412A80013C401105A
:0412AC00F7D0000077
:0412B000B812000070
:0412B400B81200006C
:0412B8000000000032
:0412BC00F01A002004
:0412C00085D20000D3
:0412C4002000000006
:0412C800B4EB000083
:0412CC00A8EA00008C
:0412D00029C101101F
:0412D40023D1000022
:0412D800D7D2000069
:0412DC00A1C7011095
:0412E000A3C701108F
:0412E4000000000006
:0412E80067EC0000AF
:0412EC0054E80000C2
:0412F0006CE80000A6
:0412F4003CE80000D2
:0212F8000200F2
:0212FA000900E9
:0212FC000100EF
:0212FE000000EE
:0113000001EB
:0413040001D2000012
:0413080089BA00009E
:04130C0065C80000B0
:0413100005BE000016
:04131400F7BA000024
:04131800B9AE00006A
:04131C00FD89000047
:041320007FD4000076
:04132400D9A4000048
:0413280015C70110D4
:04132C0025C70110C0
:201330002DE9F84FD74CA178FF2904BF00200BF019FDA0780BF020FF044604F1680504F115
:2013500090062968086810B10021E1830CE0A87B002804BFA97E002906D13078002801BFEF
:20137000207F0128608CE0832189E08B4118491C618120460CF0B2FC01281EBFC2480178F8
:20139000012904D121890020491CE08361814FF6FF77A87E01280DD1AA8B618920890CF01E
:2013B00099FC38B1218960894A1C93B298421BD0A88B0FE03078012816D172886189208935
:2013D0000CF088FC80B1218960894A1C93B298420AD0708892B2904206D03818608180B213
:2013F0000CF074FC3F18E78304F5967999F8040020B120890021401CE183608104F12E07AD
:20141000A87E01283ED12289A88B521C92B2904238D1608104F1860120460CF053FCA88CB1
:20143000608400212177E183E08961894118A181A88B21890CF04AFC8046B988288C6A8CFD
:2014500001FB0808E88C8A4204BF3989884202BFAB8CF9888B4207D000090090AB8CA179DA
:20147000520800200CF02AFCA87F3870698CB980A88CF8802046E98C39810CF01BFC02204D
:20149000A87601E0B7F80480B4F81EC022687F4ED2F80CE00CF1010000FB08F340F6C41075
:2014B00000FB03F18E44C2F80CE03668DFF8E0E13678BEF80080774AB609032E11D1D67BB7
:2014D000F60748BF4FF000080BD408F101081FFA88F6012E12BF668AB9F8066006F2DC5608
:2014F00000E0668A5E434FF4C87AB6FBFAF6761C6661AEF80080A3614FF0180894F806A031
:2015100084F820C008FB0AFADFF88CC1DCF800E023680EF1080656F80AB0C3F810B094F8D9
:2015300006A008FB0AFACDF800A0D3F80CB0D4F814A0ABEB0A0ADDF800B046F80BA094F8DE
:2015500006A008FB0AFA56F80A609E600EF10C06A37908FB03F30EF10C0EF65C06F0F0069B
:2015700046F002060EF803604FF0000ADCF800E0A6790EF1020308FB06F623F806A0474B42
:20159000A6791B68760103F1140AD4F814B05AF806A00AEB4B0A03F1140B4BF806A0AD7E17
:2015B000022D0BD1A5796D0103F1140697F800B056F805A000FB0BAA46F805A0BD88D27B1F
:2015D000A779D60737D508FB07F70EF10802D659A6F5A86A0EF1080646F807A0A77908FBF7
:2015F00007F7D2592768511A3961BA6003F11402A1794901575807F5F667575003F11401DE
:20161000A27952018958C9F800106843244A156BA779296803F11C067F01401AA0F5167045
:20163000F0512049A07903EB40100B78012B14D10121C17214E003F114027F01D1592A4698
:201650004243A1F5E661A2F516729142DDD3082120460CF02BFB012011E0916A4A78C272C2
:20167000A179DCF8000008FB01F281182268516007200D490870204607F0A0FE0020BDE8ED
:20169000F28F00BF684E0020784F0020084F0020802400205C4D0020804E0020844E002059
:2016B000B0EC0000734F00206F4F00202DE9F84F0C46E00788B00BD50BF046FE28B10021D7
:2016D0008160B348006800B1804784F001005CE1A0070FD500210023069105910491039365
:2016F00002910191009101223C200CF0DBFA84F002004AE11D256007A64EA74F40F18A8065
:20171000002107918B46A5488178FF2904BF00200BF028FB386890F8A0000BF02DFD80466D
:201730003868C07A98F82691022818BF032808F5907A06D106F10D000CF0B0FA08B906F10C
:20175000070B514648460CF0A5FA88B33868807A002818BF012804D1314650460CF096FA3C
:2017700004E05246494630460CF08CFAFF2834D005FB00F906EB090506225146E81D0BF074
:2017900013FC16F80900396840F00209E81D07900622887E00F0010088F8260105F1010AD4
:2017B000386800F1140108F590700BF0FDFB14E0514648460CF062FA78B15246494630464C
:2017D0000CF060FAFF2808D006F10D01454348190CF064FA08B949F0020908F12C004B46A1
:2017F000017806914289120905920122B8F822100491C0880799029140080390CDF804B0E3
:20181000CDF800A0002098F806100CF04BFA84F00400BAE020060FD50021002306910591BF
:201830000491039302910191009101223B200CF039FA84F08000A8E0E0044BD5F11D06F185
:201850000D000CF017FA3868017A012918BF042931D1C17A02291EBF0329817E01292AD180
:20187000817E00F1140230460CF00CFAFF2811D04543354405F10D000CF010FA50B9E91DB9
:2018900005F10D000CF0F6F938680622E91D14300BF08AFB3868C07A022818BF03280AD1D7
:2018B00006F10D000CF0FAF928B938680622F11D0C300BF079FB3A4842683A4800784FF45A
:2018D000805109F027FC10B18E2007F005FC84F480505AE0A00505D50BF0D0FD324901203F
:2018F0000860FEE7600504D505F071FD84F480604BE0600405D5812007F0EEFB84F4804070
:2019100043E0A10440D5294D286810B100200BF029FA274E4FF0FF3028600CF0A7F9316835
:20193000244D51F8202F684690472349234B486A8A6A009001920293C86A0268086A03922E
:20195000ADF810000A6B1178002904BF5068002805D19068002804BFD068002806D0297070
:20197000506868609168A960D068E86029463568134A2E6813486B46B0471349086003F09C
:20199000BFF984F4005000E0002009B0BDE8F08F204F0020AC450020104F0020684E0020E5
:2019B000784E00206E4F0020FC002043044F0020F04E0020684500207018002049D3000093
:2019D0002C4D002058230020EC4E0020BB482DE9F84F0025BA4CB849056094F8E2000028E2
:2019F00000F06581012800F02F81B64E02283CD0032840F05C8151F8250CD4F8B81000298F
:201A1000A0F5C060C4F8D400B8BF49420028B8BF4042814226DA4FF08057D7F8A401456854
:201A3000B4F8BC0030214FF47F42082300903046A847D7F8A4014568B4F8C00004214FF4C4
:201A5000F802122300903046A847D7F8A401B4F8D070456820214FF440620A2330460097E5
:201A7000A847012584F8D8501CE151F8258C0BF005FD2F4600B901273946934F386800282A
:201A9000FCD0B146012609F10409D9F82CA03E6009B10BF0F9FCCAF30720C4F8BC000BF009
:201AB000EDFCAA4600B9B2463B68002BFCD0D9F800B0BAF1000F3E6001D00BF0E5FCCBF3AE
:201AD0008440C4F8C0000BF0D9FCAA4600B9B2463B68002BFCD0D9F81C90BAF1000F3E60D6
:201AF00001D00BF0D1FCC9F38120C4F8D000B8F5C061C4F8B81000F09C8094F8D80068B971
:201B1000C4F8D410D4F8C000C4F8C800D4F8BC70C4F8C470D4F8D030C4F8CC30D4F8D400F9
:201B3000D4F8BC30002854BF02226FF0010204F1C8010F6800EB40008018421000EB9272E3
:201B500007EBA2000860D4F8C810C4F8C43000291CDD1E293CDDD4F8CC0030B93429B4BF52
:201B700015391E21C4F8C81025E02A29BABFD4F8C8000B381E20C4F8C800D4F8C4003F28D3
:201B9000B4BF401C3F20C4F8C4001FE0D4F8CC00032812D011F10B0FC6BFD4F8C8000B3073
:201BB000301CC4F8C800D4F8C4000028C4BF401E051CC4F8C450032508E011F1150FC6BF00
:201BD000D4F8C8001530301CC4F8C800C4F8CC504FF08057D7F8A401B4F8C43030214FF4B6
:201BF0007F424568374800930823A847D7F8A40104214FF400321123456832480096A8474D
:201C1000B4F8C860D7F8A40104214FF4F802122345682C480096A847D7F8A40120214FF437
:201C300040620A23B4F8CC60456826480096A84701E084F8D85040F2FF50404502D8801C4C
:201C500040452FD2082030E051F8251C1F4F4BF2F5204843060A3868C0F3814001280CD1B7
:201C70001B4800680068804709F016FC0BF012FC3111C010484306EBE03694F8E50030B948
:201C90001448006820F07F403618760801E084F8E5501148310C0660012741600F4D87603B
:201CB000287808B90B2000E0052084F8E40002F05FFFBDE8F88FC0462D400C402C500C4020
:201CD0009014002000A00C4000800C40B43F0050EC010010102009403C600C4099EB000053
:201CF0002DE9F84FB34D696884B0019121B905B0BDE8F04F0BF0B6BF0978DFF8BC82AF4E6A
:201D1000DFF8BC92DFF8BCA201291CBF0229042946F2A81741F64C5B05D0402918BF802969
:201D300000F096803CE10BF0DFFB0028FAD00198007803F027FF0090446814B900200BF05B
:201D500011F89AF8010000285CD001F00DF80BF013FA02900168009801914F6807F080FE34
:201D7000022825D000990A78012ADBD196490A68137A19F80310317018B90BF06FFF5844C9
:201D9000A0602069C17E01F0EF01C1762069C17E41F08001C1762069C17E01F0F00141F0C7
:201DB0000201C1762269B96888484118D1614BE001980178802911D10820854930700A78F2
:201DD000012A03D09AF80100022801DB38690CE0D8F828003A690178D1720DE07C4907209F
:201DF00030700A783869012A02D10121C17203E0D8F828104A78C2720298817901988AF82D
:201E10000210C8E0009800288CD00199009A0078914205D101281CBF00200AF0A3FF15E0D2
:201E3000012840F0BD80684801680A7A19F8020030700BF013FF3918A0680BF00BFF18B970
:201E50000BF00CFF5844A0600120A8700098A2E09AF8010000287AD000F086FF0BF08CF983
:201E700004462068029047689AF802000BF084F903900BF03FFB10F0070F3DD0A87803F035
:201E900081FE0190416801980091029907F0E8FD022831D001990A78012A2AD14A490A6866
:201EB000137A19F80310317028B90BF0D7FE83440098C0F808B000980069C17E01F0EF011F
:201ED000C17600980069C17E41F08001C17600980069C17E01F0F00141F00201C176009A6B
:201EF000B9683A4841181069C16101210198A97051E000200AF036FF0398A04225D00298DB
:201F100033490278802A12D1082030700978012903D09AF80100022803DB38690121C17257
:201F300010E0D8F828003A690178D1720AE0072030700978386901290EBF0122D8F8281055
:201F50004A78C272A0798AF80200029823E00BF0D1FA10F0070F29D0A87803F013FE0446FE
:201F70002078D4F80480012820D117490868027A19F8021031700BF071FE3918D8F80800AC
:201F90000BF068FE20B90BF069FE5844C8F808000120A870204605B0BDE8F04F05F076BAD4
:201FB00005B0BDE8F04F00200AF0DCBE05B0BDE8F08F00BF30240020B0EC00006F4F00203E
:201FD000289A0110684E0020104F0020F0D8FFFF734F00202DE9F041A44C601C04F1080170
:201FF000ADF1400D08F074FD04F12805002128460BF02CFE9E49022204F188001346E56081
:2020100008F0E6FE9B4F10201F220623394602F0DBFC994D69782878A9B904F110012962AE
:202030000AF028F905F1440602460020009005F1540301969149029305F11C060396AB7816
:20205000102002F0C1FC4FF44876ADF814605021ADF812100020ADF810004FF47A75ADF893
:20207000185006468DF83A600DF13B02ADF8166001218DF83B6040F2053000F0EFFB40F272
:202090000630022104AA00F0E9FB74A504F148000D22294606F000F804F146024FF4427041
:2020B0001E2100F0DBFB04F1200240F20730072100F0D4FB4FF4447001210DF13A0200F061
:2020D000CDFB40F2113002210DF1120200F0C6FB40F21230022105AA00F0C0FB40F2133069
:2020F00002210DF1160200F0B9FB4FF44570022106AA00F0B3FB04F1340029460D2205F0CE
:20211000CBFF04F13400324612235D490090102002F05AFC102039460622A02302F054FC85
:20213000102039460722A02302F04EFC102039460822A02302F048FC102039460922A02349
:2021500002F042FC4F4910204FF0FF3202F03CFC4D4910204FF0FF3202F036FC1027DFF875
:202170002C814B484B4A0097132341460190384602F02AFC4F48007880000BF07DFA464D6B
:202190000146A96069B14FF6FF7009F0C7FC434B38464146009005F5F6720193112302F016
:2021B00013FC04F11400686060780AF063F83C490246384602F008FC60780AF05BF839491A
:2021D0000246384602F000FC3749384602F0FCFB09F084F804F1AC0738460AF079FE84F8CC
:2021F000C26084F8C16084F8C060012284F8AC202E48C4F8B80084F8C3604FF4E135C4F86B
:20221000C450032384F8C830394684F8CA60304684F8C96009F082F8A061D8B1202132460A
:202230000BF0CDF9A06904F54071F0220BF0CCF91F490DF11A00202205F02EFFA3690DF15A
:202250001A000AF0CBFF0DF11A01024618460BF0C0F900E0FEE710B0BDE8F081416D617201
:2022700074446973706C617900C046C00802002009D3000035BD0000F8090020ABB10000C9
:20229000E58F00008DC70000F1C90000B9C3000000EC0000D8100020380D00200CEC0000DF
:2022B0005188011031810110C5AB0010DD88000004E70000694F00202DE9F04FADF11C0D9D
:2022D000FFF788FEA54C4FF6FF7B04F5907A0AF1F0000690A068A64A00214FF0FF33FEF7BF
:2022F00059F9071CF6D00020019005A901AA02A809F0B4FD00285FD1BDF8081001200646A3
:20231000102954D160789DF8141088424FD1019D288883454BD02B78913B26D01F3B46D1CD
:202330006878162818BF002005D130460AF064F9904930460D60E36988B15BB94FF6FD70CE
:202350008D4A8A4900900023102002F03DFBE369C2B222B943F002030026E36127E02979D0
:20237000083528460BF06EFC21E068780E3802D0801E19D01BE0A88842F20301814216D1B0
:20239000A9680D789DB9491C03A80A684968026003AD41602878744903AA00F0FD002870CC
:2023B000102002F011FB02E0082008F0BBF8019810B10EB10BF028F9F80F3BD335E0E5687E
:2023D00028460BF03BFC854208BF002602D0866809F0D8FB301C28D03088401E1FD0401E66
:2023F00019D0801E13D0001F02D008381AD10EE040F20E300DF10A0103F098FA5F48009024
:202410005849BDF80A200023102002F0DDFA706809F0B8FB06E0B07808F03CFA02E0B07846
:2024300003F0E8FD304609F0ADFBE0680BF002FC0028C4D0F80867D3267850463FA109F059
:2024500037FB82455AD050463FA109F031FB824549D0E57850463EA109F02AFB82453CD00B
:20247000F02D4FDC474851462A4605F015FE3C480646D0F808803580B8F1000F42D040483F
:2024900000780026B0423DDDB50038F80500834545441DD0AB78DBB13B481121C268394B48
:2024B000934204D0491E00F11000F7D110E0A9788146480805D3288801214A4606F080FC5F
:2024D000A978880804D3288802214A4606F078FC2B480078761CF6B2D4E7062E01D109F0B8
:2024F000EFFC002000E001208DF8150001210DF1150240F2053000F0B1F903E0062E01D105
:2025100009F0DEFC27F00207780802D31F480BF0C7F8B808FFF4DEAE2579069950462A46C0
:2025300005F0BAFDA5700020E570002D20713FF4D1AEA06804210BF079FBCBE64044495378
:20255000434F4E4E4543540040454E41424C45004044495341424C4500C046C00802002056
:20257000380D0020A1BE000095B4001049A70000070000C054230020C9CE000040E2010026
:20259000694F0020440D0020240F00206C0200202DE9F84FDFF8C0B20F460546F80B80F048
:2025B0000B81A74EDFF89082B80F80F0BD80B80880F0B1803809C0F032819D4801780909B8
:2025D00080F0A480007830F07F0040F09F80684605F0C6FC012803D10098002800F09680C9
:2025F00094480078002840F0918001240025E8B20AF0B8FD48B1837A3BB1847290F9090011
:2026100004FA00F0C0B209F01FF96D1C032DEED345464FF0030A05F1AC0085F810A00BF01E
:202630001BF8DFF82492002109F11402884610681160824952F8080C05F1340042F8088CE1
:2026500042460BF015F83068006B8047AA68A969801A000BC0F1FF328A422CBF01444FF02A
:20267000FF31A961287F20B1E868A969B1EBC02F1ED90AF085F9414600B12146A9B171488A
:2026900040F60901018046464680427B64F303024273027B66F30302027346604B46DE6183
:2026B0001860418811F4406FFBD02C774146A9616649086820F0020040F400700860644A2B
:2026D00042F804AC41F23006966014605023936014604FF4CA6696601460022042F80C4CC2
:2026F00044460C6009F09CFA112004F071FE287818B9686838300AF0C7FF687F18B16C77B5
:20271000052009F08DFA534868612C7407F0D8FC27F0080783E003F0D1FE40467430006858
:2027300008B927F002077AE00AF09CFF34468146606D0068014604208847C8B1287CB8B183
:202750004046083006689EB12068EC68006B8047801BE860010BE960A14202D2091949087E
:20277000E96040F6C41088422CBFB1F5FA7FE86048460BF057FA09F04BF890B1A8696FF40F
:20279000807100224FF0007304462846A04740466C300068002808BF47F0020701D007F044
:2027B0008FFC686900214FF0806304460A462846A04727F0005732E00AF054FF59460E6899
:2027D0004EB306F1280106C90A234FF0E0450B40154008BF002B1ED106F1280191E830001E
:2027F00006F1280393E8060006F12803AA43A14383E806000BF016FAB16871B1002D08BF88
:20281000002C0AD03069B6F93C10B2682B4616462246B04701E00BF005FA27F4804727B133
:202830005846394650300AF037FFBDE8F88FC04682240020591D0020C01B0020859E00000F
:202850008C010010FC23002000100440000004600C41044011700000401C00202DE9FC41F3
:20287000A0F2013714468846022F40F233819B4E9C493F1F0F2F04D9143F4CD0BF1E1CD0C0
:2028900011E0DFE817F0D000CA000E01FB00C200BA002701B000A800100010009E0090007B
:2028B0008000750066002D2880F21481B8F1020F40F010818849238808E1B8F1010F40F088
:2028D0000981F078012800F00581324620781179107189B9002800F0FD805078012800F084
:2028F000B680042800F0B380062800F0B080052800F0AD80BDE8FC812078002840F0EA802F
:202910005078032800F0B080072800F0AD80052840F0E080A8E0B8F1010F40F0DB80207827
:20293000012840F0D78006F1EC000AF0F5FC002840F0D0803446002004F13A0106F0FCF9AC
:20295000002840F0C78004F1C8000AF0ABFEBDE8FC81B8F1020F40F0BD8020880A28C0F293
:20297000B980B0F5486F00F3B5800E46B61C17E0B8F1020F40F0AE802088B0F5FA7F80F21D
:20299000A9800E460CE0B8F1020F40F0A38020880628C0F29F80B0F5486F00F39B803E362C
:2029B0003080BDE8FC81B8F1020F40F0938020880628C0F28F80B0F5486F00F38B803C36D5
:2029D000EEE7B8F1010F40F085802078062880F28180454E0EE0B8F1010F7BD120780428A1
:2029F00078DA0A3606E0B8F1010F73D12078082870DA09363070BDE8FC81B8F1010F69D14C
:202A10002078042866DA0836F4E7B8F1010F61D1207804285EDCF61DECE7B8F1020F59D1D6
:202A300020880E36BCE7B8F1010F53D13079012850D032462078D178D07069B9002849D02C
:202A50005078012803D0042818BF052842D101200AF092FCBDE8FC81207800283AD1507801
:202A7000022818BF052835D1107809F003FC1C490246102001F0A8FFBDE8FC8106F183057C
:202A900000211F22284606F023FC42462146284605F002FB44463078B47109F0EBFB002399
:202AB00011E006F1640500211F22284606F010FC42462146284605F0EFFA44463078747191
:202AD00009F0D8FB01230094084901950246102001F07AFFBDE8FC8135BD0000F809002064
:202AF00099450110380A0020320A0020094501102DE9F04F8246DAF80070DAF804600C46D3
:202B10005FEA0208ADF11C0D14BF00214FF0FF31DFF8409248460AF09BFB002818BF0B2037
:202B300040F0158100258F488C4905708A48FC6052460AF09DFD317B27200AF09BFDB8F1F1
:202B5000010F07D06570022009F032FA062009F02FFA01E0012060702078012840F2AA802B
:202B7000801E012868D9801E012833D9801E012800F2DE800AF076FD83464FF0805000F519
:202B9000EE77D0F8DC01A378466A009321782846062908BF0120019001200290A068228AA7
:202BB000E1686368B047814658460BF03BF8B9F1000F40F0BF80B8F1000F02D00AF0C4F9FE
:202BD00002E0504609F0C8F8002800F0A3803868806A2AE00AF046FD83464FF0805000F5DB
:202BF000EE77D0F8DC01012306680093A168A27860682478AC46042C08BF9C466346B047A4
:202C1000814658460BF00EF8B9F1000F40F09280B8F1000F02D00AF097F902E0504609F0BE
:202C30009BF8002876D03868406880474C49C1F8B0510D6081467DE00AF014FD83464FF081
:202C5000805000F5EE77D0F8DC01E38A86690093E0680190208B0290A0780390207D0490B4
:202C70000121059122782846022A08BF081CE1786268A368B047814658460AF0D3FFB9F16D
:202C9000000F57D1B8F1000F02D00AF05DF902E0504609F061F800283CD03868006A804744
:202CB0005FEA000946D1E078A168E28A236906F0CBF8BFE70AF0D6FC83464FF0805000F54A
:202CD000EE76D0F8DC01E38AC7680093E0680190208B0290A0780390207D2946049001202A
:202CF0000590257805B9014608466268A368E178B847814658460AF095FFB9F1000F19D17C
:202D1000B8F1000F02D00AF01FF902E0504609F023F808B914201AE03068406980475FEA3B
:202D3000000907D1306802692169E078904781E74FF0FF39B8F1010F05D0022008F070FFF0
:202D5000062008F06DFF03480AF09EFC484607B0BDE8F08F301700206817002019C50000AD
:202D700050450240882400202DE9FE4F8A4C617811B9002009F0F6FF0AF070FF06464FF0C2
:202D9000000806F6C4160027844DDFF8149211E038460AF0F1F9417951B12A68817902F83B
:202DB000081008F101015FFA81F831460AF036FF7F1CFFB299F800008742E9DB6178884568
:202DD00005D0002009F0CEFF82200AF023FF6078012840F0C380002701E07F1CFFB299F811
:202DF0000000874280F2B48038460AF0C5F9064670790028F1D02968B0790A7890421CBF17
:202E1000002009F0AFFFB079A0E0286810F809000AF0B2F900684268DAF808109068814235
:202E300004BF3E4609F1010900F0A680A8E0286890F800B001224FF4C0710FE0636803F588
:202E5000AD76835C01FB03F901FB0BFE36F809C036F80E60B44538BF9B46521CFBB29A4208
:202E7000ECDB4FF6FF700AF0D1FE064658460AF083F94C490068D0F804A00868D94630F87E
:202E9000192060684FF4C07300F10E0103FB09F3C85AB2EBD00F52D2720840F6C4104243E6
:202EB00000920027404A0190029217E058460AF063F901680A78802A03D1DAF81030009A9A
:202ED0005A610978402908D1029980790A6802EB4011009800F5A060C8617F1C47452EDA3B
:202EF0002868C05D8345F8D001464FF4C073594363685A1803F5AD73D289595A53088B42A1
:202F100002D2521A9045E8DA0AF036F901684A68019B9168DAF808207008A1F6C41103FB15
:202F300000200AF097FE0028C0D01E48006830F81910491C20F81910286810F807B01948A5
:202F5000026800215B4622F813105846BDE8FE8F002009F007FF82200AF05CFE61782868AA
:202F70000AF050FE286800780AF006F900260068D0F804A04FF00109771CC145FFF645AF33
:202F9000F6B2002E1CBFF8B200287FF450AF286890F800B065E700BF684E0020004F002014
:202FB0007B4F002060240020844E00202DE9F04385B011F8017B0446082F04F1FD0004F116
:202FD000FC0804F1760504F5A076844A844BDFF8149213D0092F21D00F2F2FD0112F01BFFB
:202FF000287801286878102840F0D5800A78327648787076012184F83D11EBE00025521C41
:203010004E5D5F5D3E434E55575D3E4046556D1C082DF5DB204606F0EDFC74E00024571C8A
:203030000D5D1E5D35430D553A5D15400555641C082CF5DB022088F80000CBE098F8010019
:20305000820704D410F0110F57D01A2266E008784A7800EB02203080CA78887800EB0220E8
:2030700070804A79087900EB0220B080CA79887900EB0220F080087A30724A7A887A02EB37
:2030900000227281C87A0A7B00EB0220B0818A7B487B00EB0220F0810A7CC87B00EB0220EA
:2030B00030828A7C487C00EB022070820A7DC87C00EB0220B082487D897D00EB0120F08232
:2030D000494801788A0658BF1A2212D504F5A670049071890391307A029021890191F088EB
:2030F0000090B38872883188204606F08FFAE0B11E2298F80100410710D40F2088F815000B
:2031100020460AF07BFD002864D199F8000005B0BDE8F0434FF4804104F09AB8204605B0E7
:20313000BDE8F0430F210AF065BD7088A882B188E9820221F0882883297400206882A18E79
:20315000A88AC91DE981618EB0EB510F02BFE88AA18E884202BF288BE18EB0EB111F18D031
:203170002878012804BF68780F2805D0687918B10F21A972FE2127E0FC2120460AF036FDFC
:20319000F0880090B38872883188A0790AF02AFD20E0102118E0491E20460AF01FFD032FB1
:2031B00018D1A878042818BF0D2813D16E78142E18BF0E2E0ED12F7820460AF00BFD012F81
:2031D00006BFAE72FD213146204605B0BDE8F0430AF00CBD05B0BDE8F08300BFEC4D0020CA
:2031F0004C2400206E4F0020144E002010B50B7884074CBF43F0020303F0FD0304064CBFB2
:2032100043F0800303F07F0304074CBF43F0080303F0F70384064CBF43F0200303F0DF0372
:2032300010F0AA0F0B7003D0107840F00C0003E018B9107800F0F300107010BD2DE9F843F6
:203250000D4600272878022814461E4667D1696808784978DDF8208000EB012080B25FEA16
:2032700008021CBFB0F5285F0B205BD14FF42851401A08D0401E21D0401E2FD0401E25D0E9
:20329000401E31D04BE0DDF82490E8680AF014FA80B2A0EB08024A45BCBFA0EB08001FFA36
:2032B00080F909EB0800162806DAA6F800904A46E86800EB08010DE00D2732E0E86800885E
:2032D000022131802070000A60702AE0062030800622E968204609F067FE22E001203080B0
:2032F000E9680A7822701CE0E868B0B1082131800288227003881B0A63704188A17042888F
:20331000120AE270818821718288120A6271C188A171C088000AE07103E0308001E0378072
:2033300001273846BDE8F2832DE9F0470F46814638780024022890461D466DD17868089E59
:2033500001784078DFF8D8A001EB002189B24FF42852891A06D0491E29D0491E4ED0491E13
:2033700039D059E0F8680AF0A7F980B2B04204D3A919162903DB0D244FE007244DE0FB680C
:203390002A464146981909F00FFEAD19F868ADB2C5F11602002140190AF08CF9DAF8000051
:2033B00000281CBF0268002A37D0002123E08EBB022DE0D198F8000098F80110FA6800EB94
:2033D00001201080DAF8000000281CBF0268002A23D001210FE0EEB9062DCCD1F8680622C0
:2033F000414609F0E1FDDAF8000000281CBF0268002A12D00321484690470EE056B9012D60
:20341000B9D198F80000002813BF0128F9680870802402E00B2400E001242046BDE8F0874A
:2034300070240020FEB57748774A0078774C784B78490D2840D8DFE800F0E307070707DBF8
:20345000DB5EDB9A9AB8B8BF146041F2044572494C88AC421FBF4E8BAE424F8EAF4203D12F
:203470001D806E4810607AE0002C6D4D1C804FF4A05639D0641E3CD0641E35D040F2FE37DF
:20349000E41B1AD0241F012C1DD94FF47F77E41B1BD04FF44067E41B0FD0A41E012C0CD90E
:2034B000241F0AD0641E012C0DD940F2F937E41B012C19D9241F08D09AE0022814BF1E809A
:2034D000584D15604BE0584DFBE7584803681C7A012C05D141F20240488048834886F0E7BF
:2034F0004E804E834E86ECE7002009F03BFC832082E08F2080E04E488178FF2954D01460C3
:2035100018204C4C41432068851C40F204466C5A1C80A41B012C484B72D94FF47F76A41B7F
:203530000FD04FF44066A41B032C84BF641F012C0BD9A41E012C63D940F2FD36A41B08D1C6
:2035500003E0801C41F201444452136003F0FCF905E0002009F006FC85200AF05BFB03B0CB
:20357000BDE8F04035480078012103F071BE40F204424888188090421CBF41F20842904251
:203590003ED041F60402904211D12D4C2D482E4B00680025CDE9004502222C4C256855F8B7
:2035B000086FB0472A490880F7BD48881880002009F0D8FB85201FE04888188002280DD96E
:2035D00040F20442801A1BD040F6FC72801A05D0083815D04FF47F72801AE8D1887B801C80
:2035F000C2B2B52AA8BF6620887300204880F7BD002009F0B7FB8420BDE8FE400AF00ABBD3
:20361000F7BD00BF6F4F0020204F00203DD60000504F0020CC4C0020204A00205955011067
:20363000615A0110B1540110755B0110104F0020684E0020804E0020313901106E4F00201C
:2036500002000080EC4E0020CDBC0000F04E0020424F00202DE9FE4F05467B4800240068E9
:203670000094C00905D37948007810B9202008F08DFB012D40F0E280DFF80092D9F8DC006D
:20369000012840F0D8800220C9F8DC0009F0E4FB012008F07BFB5FEA000805D00120C9F83B
:2036B000DC0009F0E5FBCBE009F0F2FFA34602906748684DC0F800B0A86A016801208847FE
:2036D000012804D1584606F001FA012000906248624FC0F800B03868112009F0E7FE00B179
:2036F0000124102009F0E2FE08B144F002040F2009F0DCFE08B144F004040B2009F0D6FEAA
:2037100020B12868564E016B308888470A2009F0CDFE20B12868534E016B30888847524824
:20373000012606602868816944F0200088474F48066009F0B5FE00F001010191400814D2F4
:20375000286A81684A4888478246BAF1040FF7D0BAF1010F04D1286A4268454803219047DC
:203770004449086820F003000860584600F088F82B683868986B8047019801280CD0BAF16D
:20379000010F04D1286A42683948314690473949086840F0030008602F4806602868416985
:2037B000204688470B2009F081FE20B128682C4BC16A188888470A2009F078FE20B12868B5
:2037D000284BC16A18888847274806600322C9F8DC20264BC3F800B02868416B20468847C8
:2037F0000128F9D13868042008F0D0FA0446184806603868144800688009FBD300980128B4
:2038100002D1304606F062F909F03EFE082008F0BDFA07460298C9F8DC600AF0D7F91648E6
:20383000008805F065FF09F023FB57EA040018BF4FF0FF3804E06FF0040801E06FF0010856
:203850004046BDE8FE8FC04614100940781500200C400940B8010010000222432C20094026
:203870001EE800001AE800002820086080010443004003402422084094EB00009014002064
:203890002DE9F84FDFF804B20746ABF13500DFF8F0810068800880F0E28075480068006879
:2038B00080477E490831D1F8009000254FEA29715FEA995201F101010AD2C0F13E0210F1EA
:2038D0000A0F4FEAE202D8BF08229142B8BF111C684BD3F87C21C2F30462162AA8BF203A33
:2038F0001B68C3F30443162BA8BF203B9A465218162A05DA12F10A0FB8BF6FF0090200E0EF
:2039100015225D4B5D4E02F01F0141F4F8511980316811F0030F18BF0125C90828BF45F04E
:2039300002050FB145F00405434693F90710411A052904DA9979A94208BF99886FD0DFF8E4
:2039500044E10F28A0F10F0829DB08EB0011A1F1F0084FEA28210091072984BF0721009182
:20397000062988BF06215EF821600424774604EB81043C594FEA950CA41BEE0804F0FF0152
:2039900024BFC4F3072631446F08AE0824BFC4F3074631446E0828BF01EB146104E000218F
:2039B0004FEA950C6F080091009C5EF824E05FEA5C060EF0FF0424BFCEF3072634447E08A4
:2039D00024BFCEF3074634446E0828BF04EB1E64009E89B2A8EB06267143803104EB11247F
:2039F000AAEB02010029D8BF0121342209F0FF074A4391B24FF6FF727943B1FBF4F18A4249
:203A100038BF111C802889B205DA10F1800FB8BF6FF07F0000E07F209980D8719D711A487A
:203A300000681F2918604FF0000008D340F2FF128A4206D24908401C8A42FBD301E01F21E5
:203A50009980134F0F39090940EAC10047EA0001CBF8FB1F0026CBF8FF6FBDE8F88F0D49AE
:203A70000D4F434608200F609B1D1870BDE8F88FEC0100103C1100506E620840242208400E
:203A9000542400209C130050082009403500094000E7A48030100940FDFDA400AC3F005023
:203AB0002DE9F04F044675488A46016894461F46BAF1000FADF13C0D4DD0BCF1000F4AD08E
:203AD0009AF8002001209040014244D0BCF80000B0F5C15F32D1DCF81430DCF8182068488C
:203AF000DCF81C104FF0030E0DF128080B93DFF894B10C9200680D91C0F3036958F8046FF8
:203B1000CEB10021351F05200B4655F8042FB2F1FF3F10D0934506D0401E01F1040103F1F3
:203B30000103F2D107E0052B05DA705820F4702040EA09407050BEF1010EDFD1C4F804A04B
:203B5000C4F808C009F08EFD4F4D8046287820B140460AF067F800208DE001F07DFF4B490D
:203B7000086840F00200086007A809F0CDFB002605F1D00007AA4649099607F0C9FC4549A6
:203B900005F5827007AA07F0C3FC07A809F08BFBFF2105F1340007AB3F4A0891192107F045
:203BB0003DFC3E4A05F150001A2107AB07F036FC3B49324605F18800134606F0E9FE3949A6
:203BD000324605F1AC00134606F0E2FE364A05F120000421334608F0BFFC0E2003F024FE62
:203BF00005F1740009F0A0FA05F16C0009F09CFA2E74072085F898012E77AE616E77052327
:203C1000AE602B49EB602A786961501C2870274B1E7040460AF006F8B1464FB92548B0E8D5
:203C30008C106946A1E88C100DC86F4681E80D0038682060398A6182012060747B6813B99A
:203C500040F6C4130646E3601B48A06126746061F86800B1A061B86800B16061582249464C
:203C700004F1200005F034FB04F13800494608F059FB20466C600FB0BDE8F08FD4210840A1
:203C9000541300500200F844C01B002000200940B1CE00007D6E0000859E0000E99C0000A9
:203CB00071C90000CDCC00001DAC0000822400201170000034EB0000038600002DE9F04F14
:203CD00005468248066800680F461C469246C4F399018900ADF12C0D0A010021803205F0D6
:203CF000F7FADFF8D091A9F1880002467048016830469047A3088046610801979F1C21F075
:203D10000101F819009506EB80000390091DCDF808A07818434506EB800206EB870B3844CA
:203D3000049206EB80000690C4F39C004FEA800000F1080007EB400000EB070206EB820236
:203D50000A9224F0030202F1080200EB020506EB85053A44059506EB82050A4407953A443C
:203D700006EB8202089206EB80020992084406EB800A384406EB800518BF6FF0010040F0F6
:203D9000938009F16800024641463046904700233CB10199264611F8010B761E40EA030393
:203DB000F9D1002B08BF01207ED000263CB10299234611F8010B5B1E40EA0606F9D1002EF5
:203DD00008BF022070D001995846C84703980299C847009881680498C8473748049A594636
:203DF00081462846C847012803D14FEA88042E590EB1032058E0BE0028460021324605F052
:203E100067FA0399049A2846C847012801D12F590FB1042048E0294F294C069859463A4641
:203E3000A047079803993A46A0470699089827460A46B84709980899069AB8470A980699CC
:203E5000204C2246B84728460021282205F040FA1D4809990A9A81462846C84720342846C6
:203E700022460146C847079950460A46B84705980021324605F02CFA5FFA88F450462CB94E
:203E90005FFA88F10229B8BF012201DB5FFA88F200216B5C445CA34218BF052004D1491C29
:203EB000521EC9B2F5D100200BB0BDE8F08FC0468C4F0020B9DB0010C9DE0010D4190020D9
:203ED000F9E0001010E90000C9E60010884F00202DE9FE4F0E468246307AC10693461F460C
:203EF0004FF000090CD5584609F06CFE030000F0E8800A223146504698475FEA00094DD1A5
:203F100030780C9D0D9CDDF8388002281AD170680178407801EB002189B24FF42052891A4C
:203F3000012910D9891E3AD0491E14D0FD397AD0491E00F08180491E6DD0491E73D0491ED5
:203F500000F09580ABE0002C2AD1F068017829800278416887E0002C22D101202880F16855
:203F70000A783A7000217089401C80B209F026FE298860B10278921C511829804189797091
:203F90004289120ABA7041680278F81C6CE0091D298004220021781C09F08CFB93E0002CB4
:203FB00066D1F0680688042129803E70320A7A700DF10201304609F001FE040021D0D4F802
:203FD0000C80BDF802204FF6FF766B46314609F0F1FD40B9237862683C48022109F0E6FDC4
:203FF00008B9ADF8006098F8000002280BD1D8F804100222381D08F0D7FF2888801C288036
:2040100001E0ADF80060BDF80000B870BDF80010090AF97057E0002C2AD1F06801685046D7
:2040300009F039F902E01CBBF0680088022129803870000A787046E0F06809F03DFB80B265
:20405000A042B8BF4FF007093DDB844208BF002205D008EB04028242B4BF4246021B2A808D
:2040700092B2F0680119384608F09EFF2BE014B14FF00B0927E0F0680721298002783A70F0
:2040900043787B704188B9704288120AFA7001793971C2887A71C088000AB87113E05846C3
:2040B00009F080FD5FEA00090BD00F980290CDF8048000942B463A4631465046C847814663
:2040D00001E04FF00E094846BDE8FE8F90E900002DE9F04F0646880FADF1140DC0F0D78062
:2040F0006C4F381D006841688D68CC68486800B18047B946694F002D08BF002C0DD038460C
:204110001C300368002BFCD00021016005B1A84704B1A047604808F00BFA3C460025604929
:20413000E5616048216040F60A0CA0F800C04580017B65F303010173AA46C0F804A0417B43
:204150004FF0010B6BF303014173B268737C558011888646A1F60201C9B141F21E07C91B5B
:2041700015D041F6E677C91B012920D8507E012B65F38200507606D0108B20F47C7040F471
:204190003470108313E0108B65F30910F9E7507C012B65F38200507405D0108A20F47C70F4
:2041B00040F4347002E0108A65F309101082D6F8088075746046474600E01F467B6813B13A
:2041D00019888842F9D1C7F804E0797B65F303017973D9F86C303BB1D9680988C21F8A42E3
:2041F0001ED0801F88421BD0338CDBB1C6F824A006F12000458096F82C1065F3030186F820
:204210002C1096F82D106BF3030186F82D10CEF804009EF80D0065F303008EF80D0001E02E
:20423000C9F808502048036882680192C168406B0093102220F0784040F0805003901B48AE
:204250000291694603F028FFE0690028FCD01848C9F8140099F81D00E56178B91548006896
:20427000006801465846884701280DD0787B6BF303007873104EC9F8146005E007F00EF858
:204290000028FBD009F0FCF9E561C4F8008005B0BDE8F08FC01B0020010007060010044075
:2042B00001010E04FC2300204C13005018000021A1250000E001001031A100002DE9F04FD5
:2042D000ADF1140D071C8B4602930E9D01920F9C039500F0CB80BBF1000F00F0C780101CAC
:2042F00000F0C480181C00F0C180281C00F0BE80002C00F0C080206A002800F0B780614DC0
:20431000666A281D0068002E00F0B080A16A09F045FC40B2061C08BF6FF0020700F0A28028
:2043300020786288216A84F82C6000EB80001218143290B288475249086030B9284640686A
:2043500009F028FC4FF0FF378CE0A0684E4AE6684E4D106023692E608A464D4866694D4A71
:204370000360A56916604C4BE6694C4A1D6021781660207825794A4E6388DAF800203570EE
:20439000668801EB410106EB020C03EB4005AD18CE1805F10808C5180918AD1805F1040948
:2043B000C51CAD10D5502078C01C8010C9F800002078C01C8010C8F800002078B6180C36F9
:2043D000C01C801030602078C918891801F11005C01C801028602278CDF810C03946634665
:2043F000181D03F059FE2278594609F1040003F053FE2278019908F1040003F04DFE2378A9
:20441000204649464246FFF759FC071C13D10095049849464246334609F0B8FB80462278F0
:204430000298311D03F038FE22780398291D03F033FE4FFA88F721786288DAF8000001EBB3
:2044500081015218002104F043FF606A0146DAF8000088470B48406809F09CFBF8B2992861
:2044700008BF002784F82C70384606E01CB16FF0010084F82C006FF0010005B0BDE8F08FB4
:20449000884F0020CC1900208C4F0020904F0020944F0020984F0020804F0020844F00202A
:2044B0009C4F00202DE9F04F6E4CDFF8B4A1E56988468146ADF1140D002D47D1B9F1000F06
:2044D00054D0B8F1000F51D007F0DCFF06460A2E27DAD8F814702674002F38D070001021B2
:2044F0006A4600EB86002330C0B208F084FBB0B91020ADF1010111F8012FFF2A02D1401E83
:20451000F9D10CE05046007838B999F80600494600F0010009F036FB01E00120A074E56931
:2045300014E004F1E60B0A2700265846FF21062208F06CFC40B97F1E0BF10E0B06F101064B
:20455000F3D10A20207411E0267400E0267C0A2E0CDA002D48D0AA68002A39D12A695ABB6B
:204570006A69EAB9EA681AB908F036FB012074E07000102100EB86002430C0B201F032FEF9
:20459000E769217CFA68480000EB8100103225300421C0B201F026FEE1690020C8605BE0F8
:2045B0007000102100EB86002330C0B201F01AFEE169002048614FE070001C2100EB8600AB
:2045D0002230C0B201F00EFEE1690020086143E070001C2100EB86002130C0B201F002FE42
:2045F000E1690020886037E070000E214A4600EB86002030C0B201F0F5FD207C06F052FB1E
:204610006846FF21102209F055F8207C10216A467030C0B201F0E6FD207C0101A1EB400176
:2046300009190E20E63119F8012B401E01F8012BF9D1D8F814206AB15046007840B9107CC7
:2046500002F11101002300F0010009F097FA01E00120A074C4F81C80002005B0BDE8F08F40
:204670005A4F0020081200202DE9F04FADF1240D079001F0F1F95F48007808F05BF85E4D7C
:204690000024012806D90C3804D0401E0ED0401E09D006E008F0D4FB022804BF01210C1C6F
:2046B00006D0696805E005211F2401E0032107246960524A1068C0F38150012806D152F81A
:2046D0000C0C0127020E07FA02F0044308F00CFE05F1440AFF2253464018401E471C28609F
:2046F0007F1E03F8012BFBD1079A1268002602F0FF03FE2B1DD0DDF81CC0964633460EF0CB
:20471000FF07FF2F0ED0B84205D3B94203D80122BA40144201D0022069E016430EF0FF02C8
:204730000AF802305CF804EF5B1C0EF0FF07FE2FE7D1092003F078F807980121A86005F143
:20475000280007F0EFFD00274FF0010BB9462846804600F198050BFA07F0044216D106429A
:2047700004BF07F0FF0141F4C04104D01AF80700079951F82010224801F0B0FDF8B24FF042
:20479000FF3108F0CDF8C5F8009001E004202860D8F800007F1C2D1D8742DCD904A808F06B
:2047B00082FD184C184A2078102104AB059008F10C0006F033FE684608F0A6FDCDF80C90C1
:2047D0006A4660681149029008F1640006F0A0FE0F4951F80D0C20F4F85040F4005041F8A1
:2047F0000D0C0C4FC1F8FFBF4846C7F800B009B0BDE8F08F892400207C130020B43F005025
:20481000007FC76738EC0000B1CC00006DB200000D3009400800094061480178002900D128
:2048300070472DE9F843491E032984B004D9891F012940F2B180A9E05A4CDFF86C912068FC
:20485000DFF8688103685A4E03F10805062205F1080102A808F0A8FB0622A91C684608F075
:20487000A3FB2878C1091D2700F00F02032AC0F3801537D16079C0F3800081421ED1216916
:20489000062202A808F0ECF800287AD06946284609F000FA002874D03146684609F0F6F95F
:2048B000FF286ED04743D8F80000807AF519002818BF02280AD0012818BF032861D1F25D72
:2048D000691C484609F056F910285AD06B46EA1D2946484609F04AF906226946E81D08F046
:2048F00063FB4EE000F00F00052855D16079C0F38000814245D12169062202A808F0B0F8E9
:2049100000283ED06946284609F0C4F9002838D03146684609F0BAF9FF2832D04743D8F8FA
:204930000000807AF519002818BF01280AD0022818BF032825D1F25D691C484609F01AF9CD
:2049500010281ED040F2024006F000FE6B46EA1D2946484609F00AF906226946E81D08F034
:2049700023FB1448144A41F20441418041834186124801801249134811600121007802F0FD
:2049900067FC21680A680020107105E0002008F0E9F9862009F03EF905B0BDE8F08300BFC7
:2049B0006F4F0020F44B0020CC470020104F0020AC450020204A0020204F0020504F00200F
:2049D000595501106E4F00200FB42DE9F04F09AF8046ADF1240D08F0C3FD391D30F0010097
:2049F00021F0030101F1040101D102F002F905911420ADF8100000240294FF258DF8125098
:204A10007E68069609F0AEF8064608F0A9FDDFF854A130F0010015D008F00AF951462246AF
:204A30008446062031F80C7F4FB14B681B689E4204D0401E02F10102F4D100E0D5B26046B2
:204A500008F0EEFA404607F0D1F80146FF2904D02846032205AB05F0A3F809F083F807F09F
:204A700077FAA3460746CDF800B008F079FD30F001006DD0002F6BD03B4802683B48002341
:204A9000214603F06BFD044609F068F8DDF8008001264FF6F87905462D1909E0B8F1000F3D
:204AB00058D0404608F0B0FD54E00A4644E01C46786859464FF000522346FBF76BFD00288E
:204AD00032D007A80DF11D0101AA05F085FD00BB9DF81C00062813DA9DF81C100AF10C0286
:204AF000880000EBC100135A53B1994508D0019A08F01EFD00281CBFDDF804805E4613D1B9
:204B10000199684607F058F878684FF0005109F08DF8B4F1FF3FCBD0002CC9D009F01EF8B6
:204B30002B1A01D09C42C2D208F090F8009D08F07FF8083745B12A4652F80C1C0029B4D18C
:204B5000396842F80C1C3D6008F06AFA002EA5D002F04FF80598006809B0BDE8F04F04B017
:204B70007047C046EC15002090EC0000404B4C002DE9F843614C5A4D5A4EDFF870815E4F32
:204B900094F8E4100846401E0B2864D8DFE800F07B2C43062343062343067664042907D00D
:204BB00001220A2945F8212C14BF0220032004E0202045F8210C0120024684F8E200002078
:204BD00045F8390C0827C5F8FF7FC5F8F37F45F8392CBDE8F883052914BF09200620002771
:204BF00084F8E400376075E094F8E170383D0120002FC5F81B0004BF0620002102D00021E2
:204C1000F160032084F8E400032045F8010C3160306880085ED294F8E41033480127032913
:204C30000ED00068456800216022052300914046A84794F8E400062814BF0A200720CFE728
:204C500000684568002160220523022000904046A8470420C4E7FEE72548264F002601255B
:204C700006600E203D6002F0B3FB022006F0D8FF84F8E45084F8E360BDE8F883002038601D
:204C90000C25786024E04FF08059D9F8A0010168202088472C3D0F2045F8010C41F61D5669
:204CB000C5F80360D9F8A401466800214FF4C0720723022540460095B047D9F8A401C66803
:204CD00000214FF4C07207234046B0470120386084F8E45004F1780008F0BCFCBDE8F883E1
:204CF00039400C4038600C40A401001000A00C402C500C4004800C4034600C40901400201E
:204D100070B5484C484B2568186855F8183F00224FF0FF3198474548454A416B454C8868CD
:204D3000454D41791170002608F014FF434808F00DFF08F007FF4248026800215171A0233E
:204D500001680722CB804A72032103681972002201684A7700230268D3760021036883F867
:204D70005C10012201680A770123026882F85D300021006880F85E100EE06068F1B24FF40A
:204D9000C072514342185379012B04D1F0B208F0F3F908F0D3FE761C2978F0B28842ECD369
:204DB00008F0C8FE2748284A0178284C117006F0EBFB2748D021302200230170427083700F
:204DD000C370037143718371C37108F0AFFE2149214B00200870002220491A700120204B8C
:204DF00008701A701F49204B08701A701B201F491F4B0A701A804FF4A4721E491E4B0880FA
:204E10001A80FB201D491E4A088040F648001D491080FB230B80208008F084FE1A490020BD
:204E3000087070BDF04E0020EC4E0020B0EC0000714F0020684E00207B4F0020CC47002096
:204E5000104F00206D4F00207A4F00204E4F00204C240020734F0020744F0020754F002008
:204E7000764F0020774F0020784F0020794F0020524F0020444F0020464F0020484F0020A8
:204E90004A4F00204C4F00206F4F00205A480178042900D870472DE9F84F891F2FD0491E6E
:204EB000012900F29E80DFF854A19AF80200FF2825D008F061F983460BF16C07786808F0CA
:204ED0002DFE804698F80400032818D1D8F80800047814F0030404D17868BDE8F24F08F037
:204EF00019BE4578032C00F102090BF20F160BD035B1387820B93D2171700120307078E01F
:204F10003F490A78012A74D09BF8941059B32D1FEDB24B462A462146584608F0F7FD40B9EF
:204F30003D207070012131703648BDE8F24F08F0E9BD35480168884700904FF4C0709BF814
:204F50000620DAF8041042438818002180F839110BF59A7001688079490804F025FF2B49E4
:204F700000980A6890470020032CC8F8080016D0274841690878820707D5C0074CBF032050
:204F90000020401919F8000000E08120387223469AF802002A46494600F0B0F918E099F82E
:204FB0000000192803D21B4A115C8D4205D0B0700721584608F01AFE07E00F480178082977
:204FD00003D049465846FDF7F1FF484605F090FE786808F09FFD41465846BDE8F44F08F053
:204FF0008DBD002007F0BEFEBDE8F24F862008F011BEBDE8F18F00BF6F4F0020684E002099
:20501000794F0020AC450020AC150020B0150020B0EC0000E8EC00002DE9FF410446A07899
:20503000801F00F0B480C01E00F09F80401E2CD0401E20D0001F40F0AD80A08808F05AFD15
:20505000002800F0A780A17A49080ED3477967B1E168890A09D2811D6A46384602F03EFC2D
:205070000A2804BFA08803210CD0A08804F1080204F064FF8EE008F06FF9002800F08A8095
:205090006089012108F032FD84E06078002840F08180A07940087DD3404DE869002879D138
:2050B000684600210E2208F005FBA08808F022FD071C6FD06069A84640B97879B91D0622A9
:2050D0008DF80600684607F06FFF1EE06569287C0623694605F111068DF8060005F111003B
:2050F00010F8012B5B1E01F8012BF9D107F10C00B91D062207F058FFB81D3146062207F049
:2051100053FF287C40F002007871A079C00839BF387900F0FD00387940F002003871A07952
:20513000000939BF387900F0DF00387940F020003871A1799DF80D20C1F3800010438DF84C
:205150000D00080905D39DF80D0040F008008DF80D0068462146FFF7A5F9D8B998F8000013
:20517000022102F075F8002015E0E078211D002202F0B4FB0A280DDA410001EB800004F174
:205190000C0225300421C0B201F02CF802E0A08805F076FC01200090BDE8FF81081200206F
:2051B0002DE9FF4104466668A7680D4608F05AFA3178012903D108F035FD00208EE0012142
:2051D000317008F02FFD287870706878B07068687060A868B060E868F06028693061287D53
:2051F0003075687D7075A87DB075A869B061287F3077687F7077A87F4FF0000843461D464E
:2052100086F82851B07786F82951C6F82080336375627563B562B56386F82C5086F82D50A1
:20523000786802F001FB204602F0D0FF204603F019F860B9386807F063FB786802F0C8F85F
:2052500008F010FA357008F0EDFC2C4645E0684608F029F80094387B224A0190B9686B4642
:2052700006F17C0006F0DAF8684608F04DF800941D4938696A46029006F1980006F048F955
:20529000B07830B906F1CC00294607F04BF817483061707830B906F1E800294607F042F841
:2052B0001348F060684608F067F901958DF800501049029406F582700A226B4605F068FBB1
:2052D000B969FA6906F13C0007F0B9FF0A4A06F168000421234607F03FF920460090BDE84C
:2052F000FF81C0465D54000051A2000005D60000FDD5000001AF000029D400002DE9FC47C1
:2053100006460C4615469A46C0B207F035FF8146F0B208F009F80646494F3079DFF824819C
:20533000012802D0022843D082E0BAF1020F0AD100207080308002223271B06805F0D8FCC4
:205350000020B06037E0308871882A1891420BDA00207080308002223271B06805F0C8FCF3
:205370000020B0608B2061E0B3682A462146184407F01AFE30882D183580ADB272889542C2
:2053900056D199F87410802917BF81297F2198F80000091A49B200915346B168B878D2B253
:2053B00008F0A0FB002070803080022232713FE0BAF1020F3CD1042DB8BF8C2036DB2078DE
:2053D0006178001D40EA01201F49708083B20A789A4238BF8A2029D381B2A94238BF8B2034
:2053F00024D380B208F07AFBB060F0B12A46214607F0DAFD7288954211D199F87410802940
:2054100017BF81297F2198F80000091A49B200910223B168B878D2B208F064FB08E0308834
:205430002D1835800121317102E0812003F054FE24B12046BDE8F64705F05ABCBDE8F3878F
:20545000684E0020704F00206B4F00202DE9F84F8046D8F808603068D8F80450076CDFF84C
:2054700030B14764AB6B6A6C286C17F4F06F1946A0EB020934D1F8091ED2780974D3B1B191
:2054900096F821205846801D845C601E814294BF1C1C641E4046214606F0BEFEA86B001BF7
:2054B000A86361D105F19800012108F0F5F84046494607F005F957E00029F8D0404606F05C
:2054D000ABFE95F82D10A86311B900284CD101E00020A86305F19800012108F0DDF843E083
:2054F000F80A20D24FF0000A544602E0AB6B5B1EAB6393B14046012106F08EFE3068446894
:2055100014F00F04C0F804A0F0D0286B401E2863686B401E6863A86BE8B905F1980001216C
:2055300008F0BAF813E0306844680022202904F00F044260CCBF4FF0200A9A464046514675
:2055500006F06AFECAF120008145C8BF81464946404607F0B5F8EC77404605F0EFFB726A91
:2055700012B1404621469047B8090FD3A96A69B10F46404606F067FEA86238B996F82020C5
:205590005946895C4046C91905F0F2FABDE8F88FD8E800002DE9FC4705466E68D5F8088073
:2055B00037780FB1B76B1FB14FF0FF30BDE8FC8731630024F477171C74631BD006F13C0990
:2055D00008F050F882466946484605F046FF00281ED4504608F026FB9DF80000316B0870CA
:2055F000306B736B7F1E00F10100306303F101007063E5D17078726B316B0128A1EB020169
:20561000316303D1F36828469847726B144659E0B763D8F80010086B40F400700863D8F8AE
:205630000010886B40F4FA608863504608F0FAFA06F5947007F064FA707806F5947768BBF7
:2056500008F010F896F82D1069B1716B59B1B16B49B1B46308F0E6FA06F5947007F040FA3A
:20567000706BBDE8FC8708F0DDFA716806F1E805284607F0EDFD0028F2D0B4632846214666
:2056900007F0E6FD0028EBD0384607F029FA1027716B306BF777401A3063E1E707F0E2FFFC
:2056B00096F82D1061B1716B51B1B16B41B1B46308F0B8FA06F19800012107F0EDFF01E0DB
:2056D00008F0B0FA2046BDE8FC8770472DE9FE4F00281C4600908B46019200F08180BBF155
:2056F000000F7DD0101C7BD0002C7ED0206A002876D0414D676A281D0068002F70D0A16ACF
:2057100008F04CFA40B2071C08BF6FF0020063D020786288216A84F82C7000EB4000121851
:205730000C3290B288473349086030B92846406808F030FA4FF0FF304EE088466588B4F802
:20575000029094F800A0D8F80060204605F070F920780AEB0907AD19BF1909EB4A01C01C31
:2057700080108E192860207800993F1DC01C8010386020780836C01C801030602278281D18
:2057900002F08AFC28463A463346014608F0A2F92278391D8146584602F07EFC227801984C
:2057B000311D02F079FC21786288D8F8000001EB41015218002103F08BFD606A0146D8F8BC
:2057D000000088470C48406808F0E4F94FFA89F0C1B2992908BF002084F82C00BDE8FE8F61
:2057F0001CB16FF0010084F82C006FF00100BDE8FE8FC046884F0020CC190020F0B5494DF5
:2058100028780C46E10BADF11C0DC90362D1A0084FD2E869296A62080DD2E00828BF84F09B
:2058300004047CD2600904D303F08CFD84F0100475E0002074E0868861B905F116003A4A3D
:2058500000904FF6FF710223012008F03FF90146296221B304A80090002701970223029322
:20587000FF220392EA8A30460DF11203FEF730FB58B99DF813009DF81220296A12EB002213
:2058900004D04989304605F067FC296AEA8A08463B464FF6FF7108F08DF901462962287809
:2058B00021B907F051FA84F0010438E084F0010407E000200146FEF7F5FD20B1287884F098
:2058D0000204012103E02878022184F0020401F0BFFC24E003F042F8071C1ED038780126AB
:2058F000B03811D0401E02D01F3808D011E0387978B97888F9883A8905F02EFC0AE03846D2
:20591000FFF78AFB064604E0397907F1080008F099F916B1384607F0B3F884F40044A0B29B
:2059300007B0F0BD0812002098E90000484B2DE9F04F0C46997AADF12C0D86460591187B1F
:205950000990597AD88A5A79DF7A049193F804A00890197A988A039193F801900790D97993
:20597000588A0291B3F8428006909979DD890191188AD9789E780091D969AEF5407CBCF1AD
:205990001D0F10D8DFE80CF05F585553514F4D4A4643413F3C3A380F3432302D2B2522206F
:2059B0001E0F1B1A1918BEF12D0F4DDA294972461020FFF709F81FE0099FBA46D146CDF85E
:2059D00014901BE00898079007980690DDF8188005E03433186820609888A08034E0404619
:2059F00008E0B3F8400007E0D88F03E0988F01E093F83A00054614E0208025E005980490B1
:205A10000498039001E02E33E4E7039802900298009008E0019A03F1830110E003F164019F
:205A30000DE02846E8E7009E0DE02833D2E721600AE003F1540101E003F144011022204627
:205A500002F02AFB00E026700BB0BDE8F08FC046F809002041CF00002DE9FF47484C94F817
:205A7000E700002876D13E4E01273C48F57C84F8E770736884F8E6500068C4F81031C0F39F
:205A9000801084F8E800684607F076FD002504F10C0001956B468DF80050324902952A4626
:205AB00004F076FF304904F130006B462A4604F06FFF2E4904F154006B4681462A4604F0B0
:205AD00067FFB16838468847DFF8B0802848327D08F104030078284E1868C0F3815A22B1F5
:205AF000BAF1030F04D184F8E170BAF1030F17D0BAF1020F14D0BAF1010F0ED0022006F042
:205B100057FA1C480068016804208847012804D030683221B1FBF0F10DE005F0ADFD12E009
:205B3000022006F045FABAF1030F0CBF4FF47A7142F210713068B1FBF0F1484607F088FD64
:205B5000484607F087FD40460068C00802D2284606F02EFA00200090BDE8FF8714100940CE
:205B700084EB0000AF9F0000ED7C00005198000089240020E001001074240020B03F005051
:205B9000901400202DE9F041FF2807461ED107F0B1FC10F0070F16D0042005F0A9FE08B16E
:205BB00004200AE0012005F0A3FE08B1012004E0022005F09DFE20B10220BDE8F04105F0E2
:205BD000B3BE07F0CFF80020BDE8F08105F0ACFE8046012FD8F80450334E04D0022F29D018
:205BF000042F3DD0EFE7022005F082FE80B1022005F09AFE074601207C6805F079FE28B171
:205C1000A0683118A86808F025F888B13846DBE7042005F06DFE28B1042005F085FE07463F
:205C3000012026E0012005F063FE08B94FF000084046C9E7042005F05BFE28B1042005F014
:205C500073FE0746022014E0012005F051FE28B1012005F069FE074602200AE00220E2E761
:205C7000012005F045FE88B1012005F05DFE074604207C6805F03CFE0028C7D0A06831187D
:205C9000A86807F0E7FF0028C0D1D1E7022005F02FFE30B1022005F047FE074604207C68C0
:205CB000E8E70420BFE700BF589EFFFF2DE9F043454E0546307CADF14C0DA84209D1307852
:205CD000012106F07DF83078022106F079F807F03BF86C0004EB85040E210FAA04F12000EA
:205CF00004F120075FFA80F9F8B206F084FF002865D10FA8FF21062207F088F800285ED158
:205D100068461C2207F0D6FC07A8FF21102207F0D1FC04F1230010210BAAC0B2804606F0CD
:205D30006AFF90B929480778FF2110220BA807F06DF850B93FB99DF842000FA900F00100CF
:205D500007F020FF01E00120B0740FA8FF210E2207F0B0FC48460E210FAA00F043FA06465E
:205D70001C216A4604F12100C0B200F03BFA1C216A46064304F12200C0B200F033FA10216C
:205D90006A460643404600F02DFA10216A46064304F12400C0B200F025FA04F12507042153
:205DB0006A460643F8B200F01DFA7035102107AA40EA0604E8B200F015FA204300E0002072
:205DD00013B0BDE8F083C046081200205A4F00202DE9F84F804691460A9CDDF82CB00C9ED4
:205DF0000D9D9A46484607F085FE07002FD0B8F1000F2CD138795FEA0A714CBF40F0200076
:205E100000F0DF00002C08BFBBF1000F07D1002E08BF002D03D100F0FB00387117E040F06C
:205E3000040038713DB12869B8621022294607F1180007F0B9F854B1F86A08B107F0B4FAEE
:205E500026480268906D1C2106F0A8FFF862244F3868002840D084B1D0F8A40028B91C2020
:205E700007F092FA3968C1F8A4003868D0F8A40018B11C22214607F097F88EB13968D1F8E8
:205E9000A80028B9172007F07FFA3968C1F8A8003868D0F8A80018B11722314607F084F8C4
:205EB0008DB13968D1F8AC0028B9142007F06CFA3968C1F8AC003868D0F8AC0018B11422F3
:205ED000294607F071F85B4652464946404601B0BDE8F04F07F0F6BDBDE8F18F304F002092
:205EF000A44E00202DE9FE430D884A88AA4201D32A0001D1012075E000230024ADF8043070
:205F100002944FF6FF7881460F4627E00294287802283AD1BDF8006001218DF80610B60801
:205F30002878022860D1688904F8010B02226989090A04F8011B2046696807F035F8A41C01
:205F5000BDF80400401CADF80400B1B2BDF80400884249D26D89454546D06D1C00200090A3
:205F7000002379880022A8B207F0B0FD05003BD0BDF8040008BB6B4642460521484607F05D
:205F90009DFD0400C2D111202CE002208DF806001221BDF8000090FBF1F62A78102A23D1AC
:205FB000688904F8010B6989090A04F8011B2046696806F0F9FF1034C2E79DF806000128E5
:205FD000EBD1ADE701A9484607F074FD48B101AB05221621484607F069FD10B1029804F084
:205FF00087FE0020BDE8FE83BDF804000028E9D10A20F7E770B53C4C0146401EADF1680DBE
:20601000217038D0374EC01E2FD0401E25D0401E5DD104F1640007F043FB30491020FEF76A
:20603000D3FC2F49C2B210AB1020521EFEF7CCFC20B115A940F21530FFF778FC314608A8E6
:2060500008AD202202F028F8284607F0C7F80246A069294607F0BDFA39E0142006F0CCFA8C
:206070006D46314668464031EBE7142006F0C4FA31462031E3E74FF4417017A9FFF756FC7F
:206090009DF85D208DF821209DF85E108DF8221000208DF824009DF861608DF823009DF802
:2060B00060508DF827609DF85F408DF826509DF85C308DF8254008AA0821137002F026FD67
:2060D0000320052103A202F021FD00F0CBFB1AB070BDC04676312E3100C046C0F17F0110B2
:2060F000097F011024E70000080200203548344930B5ADF1140D0860FFF7AEFC3248FEF7AD
:20611000B3FA10B128A007F0CDFC31482F4A031D1968126841F00C01196051680A4601218A
:2061300090472D492B480A68046800235508D907D00722602943801A99414FF47A720023C6
:2061500002F00CFA002908BFB0F1004F28BF6FF00040224A0021606002F12403032043F80C
:206170000C1F401E9960FAD114460D46062004F15401401E21F80C5BFBD103F0D3F9616873
:2061900017480391046800944168019181680291684603F005FF05F041F805F09BF907F0F2
:2061B0007DFC284605B030BD4572726F7220776974682050494E5F696E69740A00C046C076
:2061D000981B002035A5000060E90000D801001000400340E01A002090EC0000A4150020DE
:2061F0006CEB00002DE9FE4F3B4D4FF0000A93460290884685F801A004F0CAFA071C1BD0E7
:20621000B8F1000F08BF544614D0ABF1010946465446384601A9012205F0A6FA9DF804101C
:2062300019F8010F884205D17F1C761E04F10104BFB2EED1A0454CD06F8808F103004FF6FB
:20625000FC7440F6FC7104EA0006B819814204DA07F0B2F8FAF740FE6F88E41C46F4004074
:20627000ADF80040BB19ADF80200694601229CB2204603F01BF9BDF80200694601226FF336
:20629000DF30ADF80200204603F010F9B0105946C2B2384603F00AF902986946012240F4EF
:2062B0000040ADF80000204603F000F9BDF80000694601226FF3DF30ADF80000204603F0A1
:2062D000F5F8687820B968888019001D688000E082465046BDE8FE8F941B00202DE9F84FDE
:2062F0000C4605465FFA84F8200824BF3148444031494FEA8803C85884EA00022A40C2F327
:2063100000672E4A05EA0406A843324005F4E0260243B6F5E02F01D1500E14D305F4E0202A
:20633000074310D002F4E027B7F5A02707D0B7F5803704BF22F4003242F4A02203E022F47D
:20635000803242F4C022DFF878B01E4F012000FA08FACBF800A0DFF87090CA50014638689F
:2063700001FA08F60027064218BF0F1C37B9E80D04D34946C4F3805001F80800280E0DD3BA
:2063900007F070F9210E34BF0021311C0D4A1268B24311430B4A116007F044FC37B1E80D09
:2063B00004D34846C4F3805100F80810CBF800A0BDE8F88F006000A000100840007F077FE4
:2063D000E0200260D02002400020024080B52B48006808B106F0E8FF2948006808B106F089
:2063F000E3FF2848006808B106F0DEFF2648006808B106F0D9FF2548806808B106F0D4FF13
:206410002348006808B106F0CFFF2248006808B106F0CAFF2048006808B106F0C5FF1F4828
:20643000006808B106F0C0FF1D48406808B106F0BBFF1C48006808B106F0B6FF1A48006806
:2064500008B106F0B1FF1948006808B106F0ACFF1748006808B106F0A7FF1648006808B10F
:2064700006F0A2FF002006F07DFC13480078BDE804404FF4804100F0EBBE00BF104F00204F
:20649000144F0020184F00201C4F002030240020004F002060240020804E0020844E0020F0
:2064B000684E0020884E00208C4E0020904E002064240020682400206E4F00202DE9F84386
:2064D000374C143C666F656F04F17409002E65D0F06840F603020827531C02E040687F1E03
:2064F000FFB260B15FB101888A4218BF8B42F5D131694CC820314CC189C881E8890005F1B6
:20651000280090E80C00002705F12806B84686E88001AF687FB14FF0E241404611EA030753
:2065300000EA02060EBF002E02400B40AE682869B5F93C10B04707F095F80646B4F9860036
:206550004746401C6FF31F30A4F88600484685F83F7006F0A2F9304607F064FBB4F9841017
:206570006068B4F986300246994217D192F8701000290CBF0068381C82F8707060B1B0F10F
:20659000FF3F0BD007490968AC34B0FBF1F1204606F067FDBDE8F88306F090FBBDE8F88323
:2065B000D41B0020742400202DE9F04F064685B070888946924607F06DFA871EBFB2DFF844
:2065D000C8B0DFF8C880324D2989B81E88424CDB5FEA090049D104A80090337B7189308913
:2065F00006F10D0207F072FA04003ED060893081BDF81020217A708807F048FA5FEA000973
:2066100033D13079B91E0022039089B201920291CDF80080DBF80030BDF810207088214644
:20663000FDF756FC5FEA00091FD16389B8F80020DBF80010708807F025FA5FEA000914D1DE
:2066500030894FF6FF7188421CBF401C3081BBD10BE05FEA09003089AAF8000008BF4FF0E0
:206670000A09484605B0BDE8F08F28890028F0D0698890FBF1F028802946708807F0FEF99D
:206690000028EFD01620EDE7E04E00203E4F0020FC4C0020F8B506F0F1FE03F0B5FA06F06C
:2066B000FFFE054605F00C000C2854D0E80826D205F0FEFE2A4E376804460120014606F091
:2066D0005EFA31686143884219D22649F020B0FBF7F0241A887C18B1C868A04238BF041C1B
:2066F000214D2146284607F0C5F9284607F0BEF90120FCF7AFFF284607F0B4F92DE0280964
:2067100029D21A4CA4F1200620688168184888470746042FF8D01748690905D227B101469E
:206730000A6822F0010203E001460A6842F001020A6098310A6842F003020A603068816929
:20675000202088470C4C37682068B86B804701202060206801E0FAF749FC06F095FEF8BD33
:2067700090EC000084EB00009C140020D8010010004003408C2108402C2009402DE9F84FFB
:20679000374E0446B0688047344D05F10802116809191160F1688847286800285BD0A946B4
